:10035F001203D20516E516700205157FE87E03120B
:10036F0003BD751B03AB16AA157D017F0112031880
:02037F0080E11B
:0603E600C2A58F80D2A722
:0803EC007F027EEFDEFEDFFC64
:0103F40022E6
:0A040100C2A61203E6C2A70203EC34
:10038100CFCDCFCECCCE1201387C007D0A12013800
:04039100ED2430FF28
:0A039500D2A61203E6C2A70203EC91
:10039F00AE07EEFB7A0064017004ED148009EB6484
:0E03AF00024A7009ED243F4480FF120401222F
:1003D2007F381204017F0C1204017F061204017F90
:0403E200010204010F
:0A040B00AC0312039FAF0402039537
:06033C008B318A32893387
:1003420012039FE4FDAB31AA32A9338D827583007B
:0C0352001200F9FF60061203950D80E90F
:01035E00227C
:0A02E700EF24FFFDEE34FFFC7F0A58
:0802F1008E1C8F1D8C1E8D1F59
:1002F9007F017E00E4FBEBC3951FE51E6480F87463
:0E0309008098500AAC1CAD1D1201260B80E836
:0103170022C3
:040318008A198B1A99
:10031C0012039FAA1BEAFF7E00D394007480948082
:0F032C00400D1202E7AC19AD1A1203811A80E6D8
:01033B00229F
:040260008B828A8380
:1002640012039FC3E58364809480400D7F2B1203A7
:100274009585832585822680107F2D120395C3E4FE
:100284009582F526E49583F525AA24EAFF7E00D31A
:10029400940074809480400D1202E7AC25AD2612C0
:0502A40003811A80E651
:0102A9002232
:040215008A298B2A7D
:1002190012039FAA2BEAD39400748094804037EA92
:1002290024FFFDE434FFFC7F107E001202F1AC29AB
:10023900AD2ACFCDCFCECCCE120138EF540FFEC3AD
:10024900940A74809480EE5004243080022437FF8D
:060259001203951A80BF9C
:01025F00227C
:0402AA008A2E8B2FDE
:1002AE0012039FAA30EAFF7E00D3940074809480DC
:1002BE004026EF24FFFDEE34FFFC7F021202F1AC6C
:1002CE002EAD2FCFCDCFCECCCE120138EF54012490
:0802DE0030FF1203951A80CDD8
:0102E60022F5
:0A0415003F065B4F666D7D077F6FA9
:1003BD00EF1FAC0670011E4C600A7D027CEFDCFE67
:0403CD00DDFC80ECE7
:0103D1002209
:06018D008F088C098D0AA9
:10019300780B7C007D007BFF7A0479157E007F0A53
:1001A3001200D3E50814B4080050549001BC75F054
:1001B30003A4C58325F0C583730201D40201D802C9
:1001C30001DC0201E00201E40201EC0201F402019C
:1001D300FCD2A4800ED2A48012D2A48016D2A48012
:1001E3001AC2A4D2A3D2A28016C2A4D2A3C2A2804E
:1001F3000EC2A4C2A3D2A28006C2A4C2A3C2A27486
:100203000B250AF8E6F5807F017E001203BDE4F5B5
:01021300806A
:0102140022C7
:030000000203F503
:0C03F500787FE4F6D8FD75813302035FC9
:10000300E709F608DFFA8046E709F208DFFA803EDF
:1000130088828C83E709F0A3DFFA8032E309F608CC
:10002300DFFA8078E309F208DFFA807088828C8334
:10003300E309F0A3DFFA806489828A83E0A3F608E8
:10004300DFFA805889828A83E0A3F208DFFA804CC2
:1000530080D280FA80C680D4806980F28033801099
:1000630080A680EA809A80A880DA80E280CA803302
:1000730089828A83ECFAE493A3C8C582C8CCC5837A
:10008300CCF0A3C8C582C8CCC583CCDFE9DEE7804A
:100093000D89828A83E493A3F608DFF9ECFAA9F0C9
:1000A300EDFB2289828A83ECFAE0A3C8C582C8CC1F
:1000B300C583CCF0A3C8C582C8CCC583CCDFEADE38
:1000C300E880DB89828A83E493A3F208DFF980CC9A
:1000D30088F0EF60010E4E60C388F0ED2402B40493
:1000E3000050B9F582EB2402B4040050AF2323453A
:0600F3008223900053730C
:1000F900BB010CE58229F582E5833AF583E02250BC
:1001090006E92582F8E622BBFE06E92582F8E22205
:0D011900E58229F582E5833AF583E493221F
:10012600EF8DF0A4A8F0CF8CF0A428CE8DF0A42EED
:02013600FE22A7
:10013800BC000BBE0029EF8DF084FFADF022E4CCAB
:10014800F875F008EF2FFFEE33FEEC33FCEE9DEC74
:10015800984005FCEE9DFE0FD5F0E9E4CEFD22EDBA
:10016800F8F5F0EE8420D21CFEADF075F008EF2F04
:10017800FFED33FD4007985006D5F0F222C398FDF5
:050188000FD5F0EA2292
:00000001FF
