:1004F7004D61747269784B6579626F6172643A0015
:1003E300E4F515F5161204E37BFF7A0479F77D0132
:1003F3007F0112046B12018D7515008F16E51645EA
:100403001560F2751B02AB16AA157D017F0212045B
:030413004780E23D
:0A0536003F065B4F666D7D077F6F87
:06050700C2A58F80D2A7FF
:08050D007F027EEFDEFEDFFC41
:0105150022C3
:0A052200C2A6120507C2A702050DCC
:10048E00CFCDCFCECCCE1201387C007D0A120138F2
:04049E00ED2430FF1A
:0A04A200D2A6120507C2A702050D3D
:1004AC00AE07EEFB7A0064017004ED148009EB6476
:0E04BC00024A7009ED243F4480FF12052222FF
:1004E3007F381205227F0C1205227F061205227F18
:0404F30001020522DB
:0A052C00AC031204ACAF040204A2F9
:06046B008B178A188919A5
:100471001204ACE4FDAB17AA18A9198D827583008B
:0C0481001200F9FF60061204A20D80E9D1
:01048D00224C
:0A041600EF24FFFDEE34FFFC7F0A27
:080420008E1C8F1D8C1E8D1F28
:100428007F017E00E4FBEBC3951FE51E6480F87432
:0E0438008098500AAC1CAD1D1201260B80E806
:010446002293
:040447008A198B1A69
:10044B001204ACAA1BEAFF7E00D394007480948044
:0F045B00400D120416AC19AD1A12048E1A80E669
:01046A00226F
:04035C008B828A8383
:100360001204ACC3E58364809480400D7F2B12049B
:10037000A285832585822680107F2D1204A2C3E4E6
:100380009582F526E49583F525AA24EAFF7E00D31D
:10039000940074809480400D120416AC25AD261292
:0503A000048E1A80E646
:0103A5002235
:040311008A298B2A80
:100315001204ACAA2BEAD39400748094804037EA87
:1003250024FFFDE434FFFC7F107E00120420AC297D
:10033500AD2ACFCDCFCECCCE120138EF540FFEC3B0
:10034500940A74809480EE5004243080022437FF90
:060355001204A21A80BF91
:01035B00227F
:0403A6008A2E8B2FE1
:1003AA001204ACAA30EAFF7E00D3940074809480D1
:1003BA004026EF24FFFDEE34FFFC7F02120420AC3E
:1003CA002EAD2FCFCDCFCECCCE120138EF54012493
:0803DA0030FF1204A21A80CDCD
:0103E20022F8
:0404CA007F147E001D
:1004CE00EF1FAC0670011E4C600A7D027CEFDCFE55
:0404DE00DDFC80ECD5
:0104E20022F7
:060289008F088C098D0AAC
:10028F00780B7C007D007BFF7A0579367E007F0A34
:10029F001200D3E50814B4080050549002B875F05A
:1002AF0003A4C58325F0C583730202D00202D402D2
:1002BF0002D80202DC0202E00202E80202F00202AD
:1002CF00F8D2A4800ED2A48012D2A48016D2A48019
:1002DF001AC2A4D2A3D2A28016C2A4D2A3C2A28051
:1002EF000EC2A4C2A3D2A28006C2A4C2A3C2A27489
:1002FF000B250AF8E6F5807F017E001204CEE4F5A7
:01030F00806D
:0103100022CA
:10018D00E4FB7590FFC29320970E7F14FE1204CEF0
:10019D003097FD1204CA7B0120960B1204CA3097CA
:1001AD00FD1204CA7B0520950B1204CA3097FD126F
:1001BD0004CA7B0920940B1204CA3097FD1204CA9D
:1001CD007B0D7590FFC29220970B1204CA3097FDDC
:1001DD001204CA7B0220960B1204CA3097FD12043A
:1001ED00CA7B0620950B1204CA3097FD1204CA7BF8
:1001FD000A20940B1204CA3097FD1204CA7B0E75A7
:10020D0090FFC29120970B1204CA3097FD1204CAB9
:10021D007B0320960B1204CA3097FD1204CA7B078C
:10022D0020950B1204CA3097FD1204CA7B0B209443
:10023D000B1204CA3097FD1204CA7B0F7590FFC2D2
:10024D009020970B1204CA3097FD1204CA7B04202C
:10025D00960B1204CA3097FD1204CA7B0820950B29
:10026D001204CA3097FD1204CA7B0C20940B1204A1
:0B027D00CA3097FD1204CA7B10AF03CB
:010288002253
:03000000020516E0
:0C051600787FE4F6D8FD7581300203E325
:10000300E709F608DFFA8046E709F208DFFA803EDF
:1000130088828C83E709F0A3DFFA8032E309F608CC
:10002300DFFA8078E309F208DFFA807088828C8334
:10003300E309F0A3DFFA806489828A83E0A3F608E8
:10004300DFFA805889828A83E0A3F208DFFA804CC2
:1000530080D280FA80C680D4806980F28033801099
:1000630080A680EA809A80A880DA80E280CA803302
:1000730089828A83ECFAE493A3C8C582C8CCC5837A
:10008300CCF0A3C8C582C8CCC583CCDFE9DEE7804A
:100093000D89828A83E493A3F608DFF9ECFAA9F0C9
:1000A300EDFB2289828A83ECFAE0A3C8C582C8CC1F
:1000B300C583CCF0A3C8C582C8CCC583CCDFEADE38
:1000C300E880DB89828A83E493A3F208DFF980CC9A
:1000D30088F0EF60010E4E60C388F0ED2402B40493
:1000E3000050B9F582EB2402B4040050AF2323453A
:0600F3008223900053730C
:1000F900BB010CE58229F582E5833AF583E02250BC
:1001090006E92582F8E622BBFE06E92582F8E22205
:0D011900E58229F582E5833AF583E493221F
:10012600EF8DF0A4A8F0CF8CF0A428CE8DF0A42EED
:02013600FE22A7
:10013800BC000BBE0029EF8DF084FFADF022E4CCAB
:10014800F875F008EF2FFFEE33FEEC33FCEE9DEC74
:10015800984005FCEE9DFE0FD5F0E9E4CEFD22EDBA
:10016800F8F5F0EE8420D21CFEADF075F008EF2F04
:10017800FFED33FD4007985006D5F0F222C398FDF5
:050188000FD5F0EA2292
:00000001FF
