:0505C10012052180FE7F
:030023000203C70E
:1003C700C0E0C0F0C083C082C0D075D000C000C0FC
:1003D70001C002C003C004C005C006C00730980CA6
:1003E700E599F4F5A0AF991205B9C298D007D006E0
:1003F700D005D004D003D002D001D000D0D0D08215
:07040700D083D0F0D0E032F9
:0A05AF003F065B4F666D7D077F6F0E
:06058000C2A58F80D2A786
:080586007F027EEFDEFEDFFCC8
:01058E00224A
:0A059B00C2A6120580C2A702058661
:10000300CFCDCFCECCCE12015B7C007D0A12015B3B
:04001300ED2430FFA9
:0A001700D2A6120580C2A7020586DA
:10050300AE07EEFB7A0064017004ED148009EB641E
:0E051300024A7009ED243F4480FF12059B222E
:10056C007F3812059B7F0C12059B7F0612059B7F23
:04057C000102059BD8
:0A05A500AC03120503AF04020017B7
:0604E0008B2E8A2F8930EB
:1004E600120503E4FDAB2EAA2FA9308D8275830079
:0C04F60012011CFF60061200170D80E9C7
:0105020022D6
:0A048B00EF24FFFDEE34FFFC7F0AB2
:080495008E2A8F2B8C2C8D2D7B
:10049D007F017E00E4FBEBC3952DE52C6480F874A1
:0E04AD008098500AAC2AAD2B1201490B80E852
:0104BB00221E
:0404BC008A1D8B1EEC
:1004C000120503AA1FEAFF7E00D394007480948073
:0F04D000400D12048BAC1DAD1E1200031A80E606
:0104DF0022FA
:04037D008B828A8362
:10038100120503C3E58364809480400D7F2B120026
:100391001785831985821A80107F2D120017C3E4F7
:1003A1009582F51AE49583F519AA18EAFF7E00D320
:1003B100940074809480400D12048BAC19AD1A1214
:0503C10000031A80E6B4
:0103C6002214
:040332008A228B236D
:10033600120503AA24EAD39400748094804037EA15
:1003460024FFFDE434FFFC7F107E00120495AC22EE
:10035600AD23CFCDCFCECCCE12015BEF540FFEC373
:10036600940A74809480EE5004243080022437FF6F
:060376001200171A80BFFF
:01037C00225E
:04044E008A278B2846
:10045200120503AA29EAFF7E00D3940074809480D7
:100462004026EF24FFFDEE34FFFC7F02120495AC20
:1004720027AD28CFCDCFCECCCE12015BEF540124D5
:0804820030FF1200171A80CDB3
:01048A00224F
:04053C007F647E005A
:10054000EF1FAC0670011E4C600A7D027CEFDCFEE2
:04055000DDFC80EC62
:010554002284
:0402AC008F088D0921
:1002B000780A7C007D007BFF7A0579AF7E007F0A9B
:1002C0001200F6E50814B4080050549002D975F0F5
:1002D00003A4C58325F0C583730202F10202F5026F
:1002E00002F90202FD0203010203090203110203E3
:1002F00019D2A4800ED2A48012D2A48016D2A480D7
:100300001AC2A4D2A3D2A28016C2A4D2A3C2A2802F
:100310000EC2A4C2A3D2A28006C2A4C2A3C2A27467
:100320000A2509F8E6F5807F017E00120540E4F514
:01033000804C
:0103310022A9
:1001B000E4FB7590FFC29320970E7F64FE1205400A
:1001C0003097FD12053C7B0120960B12053C3097C1
:1001D000FD12053C7B0520950B12053C3097FD1266
:1001E000053C7B0920940B12053C3097FD12053C21
:1001F0007B0D7590FFC29220970B12053C3097FD46
:1002000012053C7B0220960B12053C3097FD12052F
:100210003C7B0620950B12053C3097FD12053C7B7C
:100220000A20940B12053C3097FD12053C7B0E759D
:1002300090FFC29120970B12053C3097FD12053CB0
:100240007B0320960B12053C3097FD12053C7B0783
:1002500020950B12053C3097FD12053C7B0B20943A
:100260000B12053C3097FD12053C7B0F7590FFC2C9
:100270009020970B12053C3097FD12053C7B042023
:10028000960B12053C3097FD12053C7B0820950B20
:1002900012053C3097FD12053C7B0C20940B120597
:0B02A0003C3097FD12053C7B10AF03C3
:0102AB002230
:100555005389F0438901C28DD28C758CFC758A183C
:07056500D2A9D2AFC2B922F6
:10040E00E4FB20B10E7F64FE12054030B1FD1205F3
:10041E003C7B0120B00B12053C30B0FD12053C7B3D
:10042E000220B20B12053C30B2FD12053C7B0320BC
:0F043E00B30B12053C30B3FD12053C7B04AF033A
:01044D00228C
:1005210075985043878053890F438920D28E758DEA
:0B053100F4758BF4C2ABD2AFD2AC2249
:0805B9008F993099FDC29922CF
:0300000002058F67
:0C058F00787FE4F6D8FD7581310205C1CB
:10002600E709F608DFFA8046E709F208DFFA803EBC
:1000360088828C83E709F0A3DFFA8032E309F608A9
:10004600DFFA8078E309F208DFFA807088828C8311
:10005600E309F0A3DFFA806489828A83E0A3F608C5
:10006600DFFA805889828A83E0A3F208DFFA804C9F
:1000760080D280FA80C680D4806980F28033801076
:1000860080A680EA809A80A880DA80E280CA8033DF
:1000960089828A83ECFAE493A3C8C582C8CCC58357
:1000A600CCF0A3C8C582C8CCC583CCDFE9DEE78027
:1000B6000D89828A83E493A3F608DFF9ECFAA9F0A6
:1000C600EDFB2289828A83ECFAE0A3C8C582C8CCFC
:1000D600C583CCF0A3C8C582C8CCC583CCDFEADE15
:1000E600E880DB89828A83E493A3F208DFF980CC77
:1000F60088F0EF60010E4E60C388F0ED2402B40470
:100106000050B9F582EB2402B4040050AF23234516
:06011600822390007673C5
:10011C00BB010CE58229F582E5833AF583E0225098
:10012C0006E92582F8E622BBFE06E92582F8E222E2
:0D013C00E58229F582E5833AF583E49322FC
:10014900EF8DF0A4A8F0CF8CF0A428CE8DF0A42ECA
:02015900FE2284
:10015B00BC000BBE0029EF8DF084FFADF022E4CC88
:10016B00F875F008EF2FFFEE33FEEC33FCEE9DEC51
:10017B00984005FCEE9DFE0FD5F0E9E4CEFD22ED97
:10018B00F8F5F0EE8420D21CFEADF075F008EF2FE1
:10019B00FFED33FD4007985006D5F0F222C398FDD2
:0501AB000FD5F0EA226F
:00000001FF
