:0E08BC0020202D20202D0020203A20203A0060
:100459001208991208FF7BFF7A0879BC7D017F0198
:100469001207EF7BFF7A0879C37D017F021207EF3C
:10047900E4FD7F8E12056B120289120340E524FB0D
:100489007A007518027D017F011207A7E525FB7A1D
:10049900007518027D047F011207A7E526FB7A0083
:1004A9007518027D077F011207A7E527FB7A0075FA
:1004B90018027D017F021207A7E528FB7A0075184B
:1004C900027D047F021207A7E529FB7A007518024D
:0904D9007D077F021207A780A134
:0A08E8003F065B4F666D7D077F6FD2
:0908DE000724130B100C3B370634
:0608AD00C2A58F80D2A756
:0808B3007F027EEFDEFEDFFC98
:0108BB00221A
:0A08CA00C2A61208ADC2A70208B3CF
:10081200CFCDCFCECCCE1201387C007D0A1201386A
:04082200ED2430FF92
:0A082600D2A61208ADC2A70208B363
:10083000AE07EEFB7A0064017004ED148009EB64EE
:0E084000024A7009ED243F4480FF1208CA22CC
:100899007F381208CA7F0C1208CA7F061208CA7F5D
:0408A900010208CA76
:0A08D400AC03120830AF040208263E
:0607EF008B148A15891627
:1007F500120830E4FDAB14AA15A9168D8275830085
:0C0805001200F9FF60061208260D80E9C1
:0108110022C4
:0A077600EF24FFFDEE34FFFC7F0AC4
:080780008E198F1A8C1B8D1CD1
:100788007F017E00E4FBEBC3951CE51B6480F874D5
:0E0798008098500AAC19AD1A1201260B80E8A9
:0107A6002230
:0407A7008A168B170C
:1007AB00120830AA18EAFF7E00D39400748094805C
:0F07BB00400D120776AC16AD171208121A80E621
:0107CA00220C
:040679008B828A8363
:10067D00120830C3E58364809480400D7F2B1208EF
:10068D002685832285822380107F2D120826C3E4C0
:10069D009582F523E49583F522AA21EAFF7E00D306
:1006AD00940074809480400D120776AC22AD231215
:0506BD0008121A80E69E
:0106C2002215
:04062E008A2D8B2E58
:10063200120830AA2FEAD39400748094804037EADB
:1006420024FFFDE434FFFC7F107E00120780AC2DF6
:10065200AD2ECFCDCFCECCCE120138EF540FFEC38C
:10066200940A74809480EE5004243080022437FF70
:060672001208261A80BFE9
:01067800225F
:040703008A328B3378
:10070700120830AA34EAFF7E00D3940074809480E4
:100717004026EF24FFFDEE34FFFC7F02120780AC7A
:1007270032AD33CFCDCFCECCCE120138EF5401242A
:0807370030FF1208261A80CDE4
:01073F002297
:040869007F647E002A
:10086D00EF1FAC0670011E4C600A7D027CEFDCFEB2
:04087D00DDFC80EC32
:010881002254
:0404E2008F088D09E9
:1004E600780A7C007D007BFF7A0879E87E007F0A27
:1004F6001200D3E50814B40800505490050F75F0A7
:1005060003A4C58325F0C5837302052702052B02C4
:10051600052F02053302053702053F02054702058E
:100526004FD2A4800ED2A48012D2A48016D2A48068
:100536001AC2A4D2A3D2A28016C2A4D2A3C2A280F7
:100546000EC2A4C2A3D2A28006C2A4C2A3C2A2742F
:100556000A2509F8E6F5807F017E0012086DE4F5AC
:010566008014
:010567002271
:10018D00E4FB7590FFC29320970E7F64FE12086DFD
:10019D003097FD1208697B0120960B120869309784
:1001AD00FD1208697B0520950B1208693097FD1229
:1001BD0008697B0920940B1208693097FD120869B4
:1001CD007B0D7590FFC29220970B1208693097FD39
:1001DD001208697B0220960B1208693097FD1208F0
:1001ED00697B0620950B1208693097FD1208697B13
:1001FD000A20940B1208693097FD1208697B0E7561
:10020D0090FFC29120970B1208693097FD12086973
:10021D007B0320960B1208693097FD1208697B0746
:10022D0020950B1208693097FD1208697B0B2094FD
:10023D000B1208693097FD1208697B0F7590FFC28C
:10024D009020970B1208693097FD1208697B0420E6
:10025D00960B1208693097FD1208697B0820950BE3
:10026D001208693097FD1208697B0C20940B120857
:0B027D00693097FD1208697B10AF0389
:010288002253
:100882005389F0438901C28DD28C758CFC758A180C
:07089200D2A9D2AFC2B922C6
:1006C300E4FB20B10E7F64FE12086D30B1FD120809
:1006D300697B0120B00B12086930B0FD1208697BF9
:1006E3000220B20B12086930B2FD1208697B0320A5
:0F06F300B30B12086930B3FD1208697B04AF0323
:0107020022D4
:10084E0075985043878053890F438920D28E758DBA
:0B085E00F4758BF4C2ABD2AFD2AC2219
:0808F2008F993099FDC2992293
:0508FA00C2B6C2B522E8
:02074000AD0703
:10074200E4FBEBC394087480948050237E00748091
:10075200A803088006CEA2E713CE13D8F8FFEDF562
:1007620082EF558224FF92B4D2B6C2B60B80D3D2A6
:03077200B5C2B558
:010775002261
:1007CB00AE05AC07AF06120740AF04A8077480084C
:1007DB008002C313D8FCF4F5807F017E0012086DF4
:0407EB007580FF22F4
:0508FF00C2B6C2B522E3
:0305680025F0FD7E
:02056B00A907DE
:10056D00D2B5E4FBEBC394087480948050227E00D6
:10057D007401A803088005C333CE33CED8F9FFE943
:10058D00F582EF558224FF92B4D2B6C2B60B80D459
:10059D00E4FBEBC394087480948050227E007401B8
:1005AD00A803088005C333CE33CED8F9FFEDF5820D
:1005BD00EF558224FF92B4D2B6C2B60B80D4C2B529
:0105CD00220B
:0205CE00AD0777
:1005D000E4F9430501D2B5FBEBC394087480948021
:1005E00050227E007401A803088005C333CE33CEA9
:1005F000D8F9FFEDF582EF558224FF92B4C2B6D24E
:10060000B60B80D4E4FBEBC394087480948050173D
:10061000D2B6C2B630B40DA8037401088002C33349
:0D062000D8FC42010B80DFC2B5C2B4AF01AF
:01062D0022AA
:10028900E4FD7F8E12056BE52475F00A84C454F0F1
:10029900FFE52475F00A84EF7F8C120568E5257562
:1002A900F00A84C454F0FFE52575F00A84EF7F88CD
:1002B900120568E52675F00A84C454F0FFE5267531
:1002C900F00A84EF25F0FD7F8612056BE52775F0AE
:1002D9000A84C454F0FFE52775F00A84EF25F0FD80
:1002E9007F8412056BE52875F00A84C454F0FFE594
:1002F9002875F00A84EF25F0FD7F8212056BE52948
:1003090075F00A84C454F0FFE52975F00A84EF25D5
:10031900F0FD7F8012056BE52A75F00A84C454F05C
:10032900FFE52A75F00A84EF25F0FD7F8A12056B37
:070339007D807F8E02056B41
:100340007F8C1205CEEFC4540F75F00AA4FEEF5453
:100350000F2EF5247F881205CEEFC4540F75F00AD6
:10036000A4FEEF540F2EF5257F861205CEEFC45460
:100370000F75F00AA4FEEF540F2EF5267F841205A8
:10038000CEEFC4540F75F00AA4FEEF540F2EF527DC
:100390007F821205CEEFC4540F75F00AA4FEEF540D
:1003A0000F2EF5287F801205CEEFC4540F75F00A8A
:1003B000A4FEEF540F2EF5297F8A1205CEEFC45408
:0C03C0000F75F00AA4FEEF540F2EF52A72
:0103CC00220E
:030000000203CD2B
:0C03CD00787FE4F6D8FD7581340204143A
:10000300E709F608DFFA8046E709F208DFFA803EDF
:1000130088828C83E709F0A3DFFA8032E309F608CC
:10002300DFFA8078E309F208DFFA807088828C8334
:10003300E309F0A3DFFA806489828A83E0A3F608E8
:10004300DFFA805889828A83E0A3F208DFFA804CC2
:1000530080D280FA80C680D4806980F28033801099
:1000630080A680EA809A80A880DA80E280CA803302
:1000730089828A83ECFAE493A3C8C582C8CCC5837A
:10008300CCF0A3C8C582C8CCC583CCDFE9DEE7804A
:100093000D89828A83E493A3F608DFF9ECFAA9F0C9
:1000A300EDFB2289828A83ECFAE0A3C8C582C8CC1F
:1000B300C583CCF0A3C8C582C8CCC583CCDFEADE38
:1000C300E880DB89828A83E493A3F208DFF980CC9A
:1000D30088F0EF60010E4E60C388F0ED2402B40493
:1000E3000050B9F582EB2402B4040050AF2323453A
:0600F3008223900053730C
:1000F900BB010CE58229F582E5833AF583E02250BC
:1001090006E92582F8E622BBFE06E92582F8E22205
:0D011900E58229F582E5833AF583E493221F
:10012600EF8DF0A4A8F0CF8CF0A428CE8DF0A42EED
:02013600FE22A7
:10013800BC000BBE0029EF8DF084FFADF022E4CCAB
:10014800F875F008EF2FFFEE33FEEC33FCEE9DEC74
:10015800984005FCEE9DFE0FD5F0E9E4CEFD22EDBA
:10016800F8F5F0EE8420D21CFEADF075F008EF2F04
:10017800FFED33FD4007985006D5F0F222C398FDF5
:050188000FD5F0EA2292
:1003D900020459E493A3F8E493A34003F68001F2DD
:1003E90008DFF48029E493A3F85407240CC8C33325
:1003F900C4540F4420C8834004F456800146F6DFF4
:10040900E4800B01020408102040809008DEE47E9D
:10041900019360BCA3FF543F30E509541FFEE493E8
:10042900A360010ECF54C025E060A840B8E493A3AF
:10043900FAE493A3F8E493A3C8C582C8CAC583CADA
:10044900F0A3C8C582C8CAC583CADFE9DEE780BE92
:0108E7000010
:00000001FF
