:100594007886A18989A186787886A98989A98678A7
:1005A4007886A98585A986787886A98989A986788F
:1005B4007886A18D8DA186787886A98D8DA9867877
:10052F002030080000000000000000FF080808FF4E
:10053F0000000E1515150900FF010100FF01010054
:10054F001E21211E00FD00FD000000000000000024
:03055F0000000099
:10039B00E4F561F562F5631206FFE4F561C3E5610F
:1003AB009408748094805012E56125622408F8E665
:1003BB00FDAF611205E8056180E30563D3E5639446
:1003CB000A7480948040D3E4F5630562D3E56294AC
:0C03DB00287480948040C3E4F56280BE6A
:0A06ED003F065B4F666D7D077F6FCF
:0606CA00C2A58F80D2A73B
:0806D0007F027EEFDEFEDFFC7D
:0106D80022FF
:0A06D900C2A61206CAC2A70206D08C
:10062F00CFCDCFCECCCE1201387C007D0A1201384F
:04063F00ED2430FF77
:0A064300D2A61206CAC2A70206D012
:10064D00AE07EEFB7A0064017004ED148009EB64D3
:0E065D00024A7009ED243F4480FF1206D922A4
:1006B6007F381206D97F0C1206D97F061206D97F1B
:0406C600010206D94E
:0A06E300AC0312064DAF04020643FB
:06060C008B5E8A5F89602D
:1006120012064DE4FDAB5EAA5FA9608D8275830070
:0C0622001200F9FF60061206430D80E98B
:01062E0022A9
:0A056300EF24FFFDEE34FFFC7F0AD9
:08056D008E5A8F5B8C5C8D5DE2
:100575007F017E00E4FBEBC3955DE55C6480F87468
:0E0585008098500AAC5AAD5B1201260B80E83C
:010593002245
:0405C4008A4D8B4E83
:1005C80012064DAA4FEAFF7E00D3940074809480EF
:0F05D800400D120563AC4DAD4E12062F1A80E692
:0105E70022F1
:040432008B828A83AC
:1004360012064DC3E58364809480400D7F2B12061F
:100446004385834985824A80107F2D120643C3E483
:100456009582F54AE49583F549AA48EAFF7E00D3DA
:10046600940074809480400D120563AC49AD4A1225
:05047600062F1A80E6CC
:01047B00225E
:0403E7008A528B5358
:1003EB0012064DAA54EAD39400748094804037EAE5
:1003FB0024FFFDE434FFFC7F107E0012056DAC5230
:10040B00AD53CFCDCFCECCCE120138EF540FFEC3B0
:10041B00940A74809480EE5004243080022437FFB9
:06042B001206431A80BF17
:0104310022A8
:0404BC008A578B5878
:1004C00012064DAA59EAFF7E00D3940074809480EE
:1004D0004026EF24FFFDEE34FFFC7F0212056DACD9
:1004E00057AD58CFCDCFCECCCE120138EF5401242A
:0804F00030FF1206431A80CD13
:0104F80022E1
:040686007F647E000F
:10068A00EF1FAC0670011E4C600A7D027CEFDCFE97
:04069A00DDFC80EC17
:01069E002239
:040315008F388D3957
:10031900783A7C007D007BFF7A0679ED7E007F0AC2
:100329001200D3E53814B40800505490034275F014
:1003390003A4C58325F0C5837302035A02035E0231
:10034900036202036602036A02037202037A02036A
:1003590082D2A4800ED2A48012D2A48016D2A48004
:100369001AC2A4D2A3D2A28016C2A4D2A3C2A280C6
:100379000EC2A4C2A3D2A28006C2A4C2A3C2A274FE
:100389003A2539F8E6F5807F017E0012068AE4F500
:0103990080E3
:01039A002240
:10018D00E4FB7590FFC29320970E7F64FE12068AE2
:10019D003097FD1206867B0120960B12068630974E
:1001AD00FD1206867B0520950B1206863097FD12F3
:1001BD0006867B0920940B1206863097FD12068663
:1001CD007B0D7590FFC29220970B1206863097FD1E
:1001DD001206867B0220960B1206863097FD1206BC
:1001ED00867B0620950B1206863097FD1206867BC0
:1001FD000A20940B1206863097FD1206867B0E752B
:10020D0090FFC29120970B1206863097FD1206863D
:10021D007B0320960B1206863097FD1206867B0710
:10022D0020950B1206863097FD1206867B0B2094C7
:10023D000B1206863097FD1206867B0F7590FFC256
:10024D009020970B1206863097FD1206867B0420B0
:10025D00960B1206863097FD1206867B0820950BAD
:10026D001206863097FD1206867B0C20940B120623
:0B027D00863097FD1206867B10AF0351
:010288002253
:10069F005389F0438901C28DD28C758CFC758A18F1
:0706AF00D2A9D2AFC2B922AB
:10047C00E4FB20B10E7F64FE12068A30B1FD120639
:10048C00867B0120B00B12068630B0FD1206867BEF
:10049C000220B20B12068630B2FD1206867B0320B8
:0F04AC00B30B12068630B3FD1206867B04AF0336
:0104BB00221E
:10066B0075985043878053890F438920D28E758D9F
:0B067B00F4758BF4C2ABD2AFD2AC22FE
:0806F7008F993099FDC2992290
:0506FF00C2B6C2B522E5
:0204F900AD074D
:1004FB00E4FBEBC394087480948050237E007480DB
:10050B00A803088006CEA2E713CE13D8F8FFEDF5AB
:10051B0082EF558224FF92B4D2B6C2B60B80D3D2EF
:03052B00B5C2B5A1
:01052E0022AA
:1005E800AE05AC07AF061204F9AF04A8077480087B
:1005F8008002C313D8FCF4F5807F017E0012068ABE
:040608007580FF22D8
:0300000002028970
:0C028900787FE4F6D8FD7581630202D096
:10000300E709F608DFFA8046E709F208DFFA803EDF
:1000130088828C83E709F0A3DFFA8032E309F608CC
:10002300DFFA8078E309F208DFFA807088828C8334
:10003300E309F0A3DFFA806489828A83E0A3F608E8
:10004300DFFA805889828A83E0A3F208DFFA804CC2
:1000530080D280FA80C680D4806980F28033801099
:1000630080A680EA809A80A880DA80E280CA803302
:1000730089828A83ECFAE493A3C8C582C8CCC5837A
:10008300CCF0A3C8C582C8CCC583CCDFE9DEE7804A
:100093000D89828A83E493A3F608DFF9ECFAA9F0C9
:1000A300EDFB2289828A83ECFAE0A3C8C582C8CC1F
:1000B300C583CCF0A3C8C582C8CCC583CCDFEADE38
:1000C300E880DB89828A83E493A3F208DFF980CC9A
:1000D30088F0EF60010E4E60C388F0ED2402B40493
:1000E3000050B9F582EB2402B4040050AF2323453A
:0600F3008223900053730C
:1000F900BB010CE58229F582E5833AF583E02250BC
:1001090006E92582F8E622BBFE06E92582F8E22205
:0D011900E58229F582E5833AF583E493221F
:10012600EF8DF0A4A8F0CF8CF0A428CE8DF0A42EED
:02013600FE22A7
:10013800BC000BBE0029EF8DF084FFADF022E4CCAB
:10014800F875F008EF2FFFEE33FEEC33FCEE9DEC74
:10015800984005FCEE9DFE0FD5F0E9E4CEFD22EDBA
:10016800F8F5F0EE8420D21CFEADF075F008EF2F04
:10017800FFED33FD4007985006D5F0F222C398FDF5
:050188000FD5F0EA2292
:1002950002039BE493A3F8E493A34003F68001F2E1
:1002A50008DFF48029E493A3F85407240CC8C3336A
:1002B500C4540F4420C8834004F456800146F6DF39
:1002C500E4800B010204081020408090052FE47E95
:1002D500019360BCA3FF543F30E509541FFEE4932E
:1002E500A360010ECF54C025E060A840B8E493A3F5
:1002F500FAE493A3F8E493A3C8C582C8CAC583CA20
:10030500F0A3C8C582C8CAC583CADFE9DEE780BED7
:010562000098
:00000001FF
