:1007AC00C2A0EBFF7E001207C2D2A0EBFFC37464A1
:0607BC009FFFE49400FE23
:0B07C200EF1FAC0670011E4C70F62209
:10056C00E4FBEBC39464748094805015E4FDEDC3FC
:10057C0094147480948050061207AC0D80F00B809C
:10058C00E17B64EBD394007480948040D3E4FDED64
:10059C00C394147480948050061207AC0D80F01B29
:0205AC0080E1EC
:1006C400090B000A0A0A0A0A0A0A0A0C1C3F065BFA
:1006D4004F666D7D077F6F00400108010114000122
:0E06E4000900010A000715170B130F29000665
:0608CC00C2A58F80D2A737
:0808D2007F027EEFDEFEDFFC79
:0108DA0022FB
:0A08DB00C2A61208CCC2A70208D280
:1007CD00CFCDCFCECCCE1202407C007D0A1202409E
:0407DD00ED2430FFD8
:0A07E100D2A61208CCC2A70208D26B
:1007EB00AE07EEFB7A0064017004ED148009EB6434
:0E07FB00024A7009ED243F4480FF1208DB2201
:1008B8007F381208DB7F0C1208DB7F061208DB7F0B
:0408C800010208DB46
:0A08E500AC031207EBAF040207E1B9
:060789008B428A43894403
:10078F001207EBE4FDAB42AA43A9448D82758300A7
:0C079F00120201FF60061207E10D80E964
:0107AB00222B
:0A069300EF24FFFDEE34FFFC7F0AA8
:08069D008E3E8F3F8C408D4121
:1006A5007F017E00E4FBEBC39541E5406480F8746F
:0E06B5008098500AAC3EAD3F12022E0B80E83A
:0106C3002214
:040741008A318B323C
:100745001207EBAA33EAFF7E00D3940074809480ED
:0F075500400D120693AC31AD321207CD1A80E67B
:010764002272
:040522008B828A83BB
:100526001207EBC3E58364809480400D7F2B12078E
:10053600E185832D85822E80107F2D1207E1C3E48D
:100546009582F52EE49583F52DAA2CEAFF7E00D33D
:10055600940074809480400D120693AC2DAD2E123B
:0505660007CD1A80E63C
:01056B00226D
:0404D7008A368B379F
:1004DB001207EBAA38EAD39400748094804037EA71
:1004EB0024FFFDE434FFFC7F107E0012069DAC362A
:1004FB00AD37CFCDCFCECCCE120240EF540FFEC3D3
:10050B00940A74809480EE5004243080022437FFC8
:06051B001207E11A80BF87
:0105210022B7
:0405EE008A3B8B3C7D
:1005F2001207EBAA3DEAFF7E00D394007480948038
:100602004026EF24FFFDEE34FFFC7F0212069DAC74
:100612003BAD3CCFCDCFCECCCE120240EF54012425
:0806220030FF1207E11A80CD40
:01062A0022AD
:040841007F647E0052
:10084500EF1FAC0670011E4C600A7D027CEFDCFEDA
:04085500DDFC80EC5A
:01085900227C
:07090A00740B2FF8A6052273
:1003AE00E4F580EF14B4080050549003C675F003C2
:1003BE00A4C58325F0C583730203DE0203E20203A4
:1003CE00E60203EA0203EE0203F60203FE0204064D
:1003DE00D2A4800ED2A48012D2A48016D2A4801AE7
:1003EE00C2A4D2A3D2A28016C2A4D2A3C2A2800E4D
:1003FE00C2A4C2A3D2A28006C2A4C2A3C2A2741C6B
:06040E002DF8E6F5802246
:10080900740B2508F8E6FDAF081203AE0508C3E529
:0C08190008940974809480400375080165
:0108250022B0
:10000300E4FB7590FFC29320970E7F64FE120845B0
:100013003097FD1208417B0120960B12084130975F
:10002300FD1208417B0520950B1208413097FD1204
:1000330008417B0920940B1208413097FD120841B7
:100043007B0D7590FFC29220970B1208413097FDEC
:100053001208417B0220960B1208413097FD1208CB
:10006300417B0620950B1208413097FD1208417B16
:100073000A20940B1208413097FD1208417B0E753C
:1000830090FFC29120970B1208413097FD1208414F
:100093007B0320960B1208413097FD1208417B0722
:1000A30020950B1208413097FD1208417B0B2094D9
:1000B3000B1208413097FD1208417B0F7590FFC268
:1000C3009020970B1208413097FD1208417B0420C2
:1000D300960B1208413097FD1208417B0820950BBF
:1000E3001208413097FD1208417B0C20940B120833
:0B00F300413097FD1208417B10AF0365
:0100FE0022DF
:100873005389F0438901C28DD28C758CFC758A181B
:07088300D2A9D2AFC2B922D5
:05091800E4AF14F5142A
:01091D0022B7
:10085A00E4FF20B1010F20B0051208417F0220B247
:08086A00027F0320B3027F04AA
:010872002263
:1005AE0085090A12085A8F09AF0A7E00EF6401709E
:1005BE0007E5097003751401EF64024E7007E50933
:1005CE007003751402E50A64037007E5097003757C
:0F05DE001403E50A64047007E50970037514043B
:0105ED0022EB
:1008260075985043878053890F438920D28E758DE2
:0B083600F4758BF4C2ABD2AFD2AC2241
:080902008F993099FDC2992282
:05091E00C2B6C2B522C3
:02062B00AD0719
:10062D00E4FBEBC394087480948050237E007480A7
:10063D00A803088006CEA2E713CE13D8F8FFEDF578
:10064D0082EF558224FF92B4D2B6C2B60B80D3D2BC
:03065D00B5C2B56E
:010660002277
:10076500AE05AC07AF0612062BAF04A807748008C8
:100775008002C313D8FCF4F5807F017E0012084582
:040785007580FF225A
:05092300C2B6C2B522BE
:02041400A90736
:10041600D2B5E4FBEBC394087480948050227E002E
:100426007401A803088005C333CE33CED8F9FFE99B
:10043600F582EF558224FF92B4D2B6C2B60B80D4B1
:10044600E4FBEBC394087480948050227E00740110
:10045600A803088005C333CE33CED8F9FFEDF58265
:10046600EF558224FF92B4D2B6C2B60B80D4C2B581
:010476002263
:02047700AD07CF
:10047900E4F9430501D2B5FBEBC394087480948079
:1004890050227E007401A803088005C333CE33CE01
:10049900D8F9FFEDF582EF558224FF92B4C2B6D2A6
:1004A900B60B80D4E4FBEBC3940874809480501796
:1004B900D2B6C2B630B40DA8037401088002C333A2
:0D04C900D8FC42010B80DFC2B5C2B4AF0108
:0104D6002203
:1000FF00E4FD7F8E120414E51575F00A1201DFC4BA
:10010F0054F0FFE51575F00A1201DFAEF0EF2EFD8A
:10011F007F8C120414E51675F00A1201DFC454F037
:10012F00FFE51675F00A1201DFAEF0EF2EFD7F88A6
:10013F00120414E51775F00A1201DFC454F0FFE53D
:10014F001775F00A1201DFAEF0EF2EFD7F86120455
:10015F0014E51875F00A1201DFC454F0FFE51875A5
:10016F00F00A1201DFAEF0EF2EFD7F84120414E5CA
:10017F001975F00A1201DFC454F0FFE51975F00A82
:10018F001201DFAEF0EF2EFD7F82120414E51A7517
:10019F00F00A1201DFC454F0FFE51A75F00A1201DC
:1001AF00DFAEF0EF2EFD7F80120414E51B75F00A11
:1001BF001201DFC454F0FFE51B75F00A1201DFAE28
:1001CF00F0EF2EFD7F8A1204147D807F8E020414BF
:100295007F8C120477EFC4540F75F00AA4FEEF5457
:1002A5000F2EF5157F88120477EFC4540F75F00AE9
:1002B500A4FEEF540F2EF5167F86120477EFC45473
:1002C5000F75F00AA4FEEF540F2EF5177F84120464
:1002D50077EFC4540F75F00AA4FEEF540F2EF518EE
:1002E5007F82120477EFC4540F75F00AA4FEEF5411
:1002F5000F2EF5197F80120477EFC4540F75F00A9D
:10030500A4FEEF540F2EF51A7F8A120477EFC4541A
:0C0315000F75F00AA4FEEF540F2EF51B2C
:0103210022B9
:0908F900D2A1D2A0C2A0C2A1222A
:07091100C2A0D2A1D2A02276
:02066100AD07E3
:10066300E4FBEBC394087480948050237E00748071
:10067300A803088006CEA2E713CE13D8F8FFEDF542
:0F06830082EF558224FF92A0D2A1C2A10B80D397
:010692002245
:1006F300E4FFFED2A0EEC39408748094805017D216
:10070300A130A00DA8067480088002C313D8FC4250
:0607130007C2A10E80DF09
:0107190022BD
:0A08EF00EF24FF92A0D2A1C2A122C3
:0B088A00120661120895AF041206610F
:0B089500D2A0D2A1A2A0E433FFC2A1B8
:0108A0002235
:1008A100AC05AA071208F97FA0120661120895AFDC
:0708B1000212088A0209117E
:02071A00AC072A
:10071C00E4FE1208F97FA012088A1208F97FA112D0
:10072C0006611208951206F3AE077F011208EF124C
:04073C000911AF06EA
:010740002296
:03000000020322D6
:0C032200787FE4F6D8FD75814402036981
:1001DF00C2D530F707B2D563F0FF05F030E70CB2A8
:1001EF00D5F4048463F0FF05F080018430D502F468
:0201FF000422D8
:10020100BB010CE58229F582E5833AF583E02250B2
:1002110006E92582F8E622BBFE06E92582F8E222FC
:0D022100E58229F582E5833AF583E4932216
:10022E00EF8DF0A4A8F0CF8CF0A428CE8DF0A42EE4
:02023E00FE229E
:10024000BC000BBE0029EF8DF084FFADF022E4CCA2
:10025000F875F008EF2FFFEE33FEEC33FCEE9DEC6B
:10026000984005FCEE9DFE0FD5F0E9E4CEFD22EDB1
:10027000F8F5F0EE8420D21CFEADF075F008EF2FFB
:10028000FFED33FD4007985006D5F0F222C398FDEC
:050290000FD5F0EA2289
:10032E0002056CE493A3F8E493A34003F68001F274
:10033E0008DFF48029E493A3F85407240CC8C333D0
:10034E00C4540F4420C8834004F456800146F6DF9F
:10035E00E4800B01020408102040809006C4E47E65
:10036E00019360BCA3FF543F30E509541FFEE49394
:10037E00A360010ECF54C025E060A840B8E493A35B
:10038E00FAE493A3F8E493A3C8C582C8CAC583CA86
:10039E00F0A3C8C582C8CAC583CADFE9DEE780BE3E
:0106F2000007
:00000001FF
