:10068500013200012F00012E00013000013100026E
:0B069500280000022A0000022C0000D8
:1001EA001209C1120A5E8F327E00EF6401700CE5BB
:1001FA003170047D0180027D008D31EF64024E7002
:10020A0006F52FF52EF530E53264037029AD2FFF80
:10021A001209EF7F057E00120993AD2E7F011209A4
:10022A00EF7F057E00120993AD307F021209EF7F3E
:10023A00057E00120993E53264047014FF120889DE
:10024A008F2F7F011208898F2E7F021208898F3023
:10025A00E52F75F00A84FD7F01120A50E52F75F02B
:10026A000A84ADF07F02120A507D0B7F03120A50F6
:10027A00E52E75F00A84FD7F04120A50E52E75F00A
:10028A000A84ADF07F05120A507D0B7F06120A50D0
:10029A00E53075F00A84FD7F07120A50E53075F0E3
:0C02AA000A84ADF07F08120A500201ED3A
:1007CC00E531602E0530C3E530946474809480402C
:1007DC0021E4F530052EE52E943C74809480401273
:1007EC00E4F52E052FE52F943C748094804003E4AF
:0307FC00F52F22B4
:03000B000203F9F4
:1003F900C0E0C0F0C083C082C0D075D000C000C0CA
:0D04090001C002C003C004C005C006C0074A
:10041600758CFC758A180529E52970020528C39490
:1004260014E528940040097528007529001207195B
:10043600052BE52B7002052AC39402E52A94004099
:1004460009752A00752B00120957052DE52D700236
:10045600052CC3940AE52C94004009752C00752DD3
:04046600001207CCAD
:10046A00D007D006D005D004D003D002D001D000E6
:0B047A00D0D0D082D083D0F0D0E03290
:1006A000090B000A0A0A0A0A0A0A0A0C1C3F065B1E
:1006B0004F666D7D077F6F00400108010114000146
:0E06C0000900010A000715170B130F29000689
:060A1A00C2A58F80D2A7E7
:080A20007F027EEFDEFEDFFC29
:010A280022AB
:0A0A2900C2A6120A1AC2A7020A2090
:10091B00CFCDCFCECCCE1203177C007D0A1203179E
:04092B00ED2430FF88
:0A092F00D2A6120A1AC2A7020A207B
:10093900AE07EEFB7A0064017004ED148009EB64E4
:0E094900024A7009ED243F4480FF120A292261
:100A06007F38120A297F0C120A297F06120A297FCB
:040A160001020A29A6
:0A0A3300AC03120939AF0402092FC9
:0608F8008B4D8A4E894F72
:1008FE00120939E4FDAB4DAA4EA94F8D82758300C6
:0C090E001202D8FF600612092F0D80E9CC
:01091A0022BA
:0A083100EF24FFFDEE34FFFC7F0A08
:08083B008E498F4A8C4B8D4C55
:100843007F017E00E4FBEBC3954CE54B6480F874B9
:0E0853008098500AAC49AD4A1203050B80E8AC
:010861002274
:0408B0008A3C8B3DB6
:1008B400120939AA3EEAFF7E00D394007480948022
:0F08C400400D120831AC3CAD3D12091B1A80E605
:0108D3002202
:0406CF008B828A830D
:1006D300120939C3E58364809480400D7F2B12098E
:1006E3002F85833885823980107F2D12092FC3E42B
:1006F3009582F539E49583F538AA37EAFF7E00D36E
:10070300940074809480400D120831AC38AD3912D6
:05071300091B1A80E63D
:0107180022BE
:04063A008A418B4224
:10063E00120939AA43EAD39400748094804037EAB1
:10064E0024FFFDE434FFFC7F107E0012083BAC411A
:10065E00AD42CFCDCFCECCCE120317EF540FFEC38B
:10066E00940A74809480EE5004243080022437FF64
:06067E0012092F1A80BFD3
:010684002253
:040759008A468B47FA
:10075D00120939AA48EAFF7E00D394007480948070
:10076D004026EF24FFFDEE34FFFC7F0212083BAC68
:10077D0046AD47CFCDCFCECCCE120317EF540124CB
:08078D0030FF12092F1A80CD84
:010795002241
:04098F007F647E0003
:10099300EF1FAC0670011E4C600A7D027CEFDCFE8B
:0409A300DDFC80EC0B
:0109A700222D
:070A5000740B2FF8A605222C
:10051100E4F580EF14B40800505490052975F003F8
:10052100A4C58325F0C58373020541020545020573
:100531004902054D0205510205590205610205698D
:10054100D2A4800ED2A48012D2A48016D2A4801A82
:10055100C2A4D2A3D2A28016C2A4D2A3C2A2800EE8
:10056100C2A4C2A3D2A28006C2A4C2A3C2A2741C06
:060571002DF8E6F58022E2
:10095700740B2508F8E6FDAF081205110508C3E575
:0C09670008940974809480400375080116
:010973002261
:10000E00E4FB7590FFC29320970E7F64FE12099356
:10001E003097FD12098F7B0120960B12098F3097B6
:10002E00FD12098F7B0520950B12098F3097FD125B
:10003E00098F7B0920940B12098F3097FD12098FBF
:10004E007B0D7590FFC29220970B12098F3097FD92
:10005E0012098F7B0220960B12098F3097FD120921
:10006E008F7B0620950B12098F3097FD12098F7B1F
:10007E000A20940B12098F3097FD12098F7B0E7593
:10008E0090FFC29120970B12098F3097FD12098FA6
:10009E007B0320960B12098F3097FD12098F7B0779
:1000AE0020950B12098F3097FD12098F7B0B209430
:1000BE000B12098F3097FD12098F7B0F7590FFC2BF
:1000CE009020970B12098F3097FD12098F7B042019
:1000DE00960B12098F3097FD12098F7B0820950B16
:1000EE0012098F3097FD12098F7B0C20940B120989
:0B00FE008F3097FD12098F7B10AF03BD
:0101090022D3
:1009C1005389F0438901C28DD28C758CFC758A18CC
:0709D100D2A9D2AFC2B92286
:050A5E00E4AF14F514E3
:010A63002270
:1009A800E4FF20B1010F20B00512098F7F0220B2A9
:0809B800027F0320B3027F045B
:0109C0002214
:1007190085090A1209A88F09AF0A7E00EF640170E2
:1007290007E5097003751401EF64024E7007E509C6
:100739007003751402E50A64037007E5097003750F
:0F0749001403E50A64047007E5097003751404CE
:01075800227E
:1009740075985043878053890F438920D28E758D93
:0B098400F4758BF4C2ABD2AFD2AC22F2
:080003008F993099FDC299228A
:050A6400C2B6C2B5227C
:02079600AD07AD
:10079800E4FBEBC394087480948050237E0074803B
:1007A800A803088006CEA2E713CE13D8F8FFEDF50C
:1007B80082EF558224FF92B4D2B6C2B60B80D3D250
:0307C800B5C2B502
:0107CB00220B
:1008D400AE05AC07AF06120796AF04A807748008EC
:1008E4008002C313D8FCF4F5807F017E00120993C3
:0408F4007580FF22EA
:050A6900C2B6C2B52277
:02057700A907D2
:10057900D2B5E4FBEBC394087480948050227E00CA
:100589007401A803088005C333CE33CED8F9FFE937
:10059900F582EF558224FF92B4D2B6C2B60B80D44D
:1005A900E4FBEBC394087480948050227E007401AC
:1005B900A803088005C333CE33CED8F9FFEDF58201
:1005C900EF558224FF92B4D2B6C2B60B80D4C2B51D
:0105D90022FF
:0205DA00AD076B
:1005DC00E4F9430501D2B5FBEBC394087480948015
:1005EC0050227E007401A803088005C333CE33CE9D
:1005FC00D8F9FFEDF582EF558224FF92B4C2B6D242
:10060C00B60B80D4E4FBEBC3940874809480501731
:10061C00D2B6C2B630B40DA8037401088002C3333D
:0D062C00D8FC42010B80DFC2B5C2B4AF01A3
:01063900229E
:10010A00E4FD7F8E120577E51575F00A1202B6C472
:10011A0054F0FFE51575F00A1202B6AEF0EF2EFDA7
:10012A007F8C120577E51675F00A1202B6C454F0F0
:10013A00FFE51675F00A1202B6AEF0EF2EFD7F88C3
:10014A00120577E51775F00A1202B6C454F0FFE5F6
:10015A001775F00A1202B6AEF0EF2EFD7F86120571
:10016A0077E51875F00A1202B6C454F0FFE518755F
:10017A00F00A1202B6AEF0EF2EFD7F84120577E583
:10018A001975F00A1202B6C454F0FFE51975F00A9F
:10019A001202B6AEF0EF2EFD7F82120577E51A75D0
:1001AA00F00A1202B6C454F0FFE51A75F00A1202F8
:1001BA00B6AEF0EF2EFD7F80120577E51B75F00ACB
:1001CA001202B6C454F0FFE51B75F00A1202B6AE6D
:1001DA00F0EF2EFD7F8A1205777D807F8E020577EC
:10036C007F8C1205DAEFC4540F75F00AA4FEEF541B
:10037C000F2EF5157F881205DAEFC4540F75F00AAD
:10038C00A4FEEF540F2EF5167F861205DAEFC45437
:10039C000F75F00AA4FEEF540F2EF5177F8412058B
:1003AC00DAEFC4540F75F00AA4FEEF540F2EF518B3
:1003BC007F821205DAEFC4540F75F00AA4FEEF54D5
:1003CC000F2EF5197F801205DAEFC4540F75F00A61
:1003DC00A4FEEF540F2EF51A7F8A1205DAEFC454DF
:0C03EC000F75F00AA4FEEF540F2EF51B55
:0103F80022E2
:090A4700D2A1D2A0C2A0C2A122DA
:070A5700C2A0D2A1D2A0222F
:0207FF00AD0744
:10080100E4FBEBC394087480948050237E007480D1
:10081100A803088006CEA2E713CE13D8F8FFEDF5A2
:0F08210082EF558224FF92A0D2A1C2A10B80D3F7
:0108300022A5
:10086200E4FFFED2A0EEC39408748094805017D2A5
:10087200A130A00DA8067480088002C313D8FC42E0
:0608820007C2A10E80DF99
:01088800224D
:0A0A3D00EF24FF92A0D2A1C2A12273
:0B09D8001207FF1209E3AF041207FF33
:0B09E300D2A0D2A1A2A0E433FFC2A169
:0109EE0022E6
:1009EF00AC05AA07120A477FA01207FF1209E3AF4F
:0709FF00021209D8020A5799
:02088900AC07BA
:10088B00E4FE120A477FA01209D8120A477FA11271
:10089B0007FF1209E3120862AE077F01120A3D122D
:0408AB000A57AF0633
:0108AF002226
:0300000002048572
:0C048500787FE4F6D8FD75814F0204CCAE
:1002B600C2D530F707B2D563F0FF05F030E70CB2D0
:1002C600D5F4048463F0FF05F080018430D502F490
:0202D600042200
:1002D800BB010CE58229F582E5833AF583E02250DB
:1002E80006E92582F8E622BBFE06E92582F8E22225
:0D02F800E58229F582E5833AF583E493223F
:10030500EF8DF0A4A8F0CF8CF0A428CE8DF0A42E0C
:02031500FE22C6
:10031700BC000BBE0029EF8DF084FFADF022E4CCCA
:10032700F875F008EF2FFFEE33FEEC33FCEE9DEC93
:10033700984005FCEE9DFE0FD5F0E9E4CEFD22EDD9
:10034700F8F5F0EE8420D21CFEADF075F008EF2F23
:10035700FFED33FD4007985006D5F0F222C398FD14
:050367000FD5F0EA22B1
:100491000201EAE493A3F8E493A34003F68001F296
:1004A10008DFF48029E493A3F85407240CC8C3336C
:1004B100C4540F4420C8834004F456800146F6DF3B
:1004C100E4800B0102040810204080900685E47E40
:1004D100019360BCA3FF543F30E509541FFEE49330
:1004E100A360010ECF54C025E060A840B8E493A3F7
:1004F100FAE493A3F8E493A3C8C582C8CAC583CA22
:10050100F0A3C8C582C8CAC583CADFE9DEE780BED9
:0106CE00002B
:00000001FF
