:10093600737472696E670057656C636F6D652074BA
:090946006F204368696E61210015
:0909C100012700012900012800B2
:10052A001209AD7B617D017F011209F77BFF7A0910
:10053A0079367D017F021208BC7518037B877A021F
:10054A007D087F021208727518047B7B7A007D0C85
:10055A007F0212066B7518027BA57A007D037F0164
:10056A001206BF7518087BA57A007D067F0112075F
:10057A004D7BDF7D0F7F011209F77B437D107F01E1
:10058A001209F77BFF7A09793D7D117F011208BCB8
:0E059A007F181209ED7FEE7E0212095380F2E7
:0A0A01003F065B4F666D7D077F6FB7
:0909CA000720170B130F2900068A
:04094F007F647E0043
:10095300EF1FAC0670011E4C600A7D027CEFDCFECB
:04096300DDFC80EC4B
:01096700226D
:0404A4008F088D0927
:1004A800780A7C007D007BFF7A0A79017E007F0A4A
:1004B8001200D3E50814B4080050549004D175F024
:1004C80003A4C58325F0C583730204E90204ED0281
:1004D80004F10204F50204F9020501020509020506
:1004E80011D2A4800ED2A48012D2A48016D2A480E5
:1004F8001AC2A4D2A3D2A28016C2A4D2A3C2A28036
:100508000EC2A4C2A3D2A28006C2A4C2A3C2A2746D
:100518000A2509F8E6F5807F017E00120953E4F503
:010528008052
:0105290022AF
:1001AF00E4FB7590FFC29320970E7F64FE120953F4
:1001BF003097FD12094F7B0120960B12094F309794
:1001CF00FD12094F7B0520950B12094F3097FD1239
:1001DF00094F7B0920940B12094F3097FD12094FDD
:1001EF007B0D7590FFC29220970B12094F3097FD30
:1001FF0012094F7B0220960B12094F3097FD1209FF
:10020F004F7B0620950B12094F3097FD12094F7B3C
:10021F000A20940B12094F3097FD12094F7B0E7570
:10022F0090FFC29120970B12094F3097FD12094F83
:10023F007B0320960B12094F3097FD12094F7B0756
:10024F0020950B12094F3097FD12094F7B0B20940D
:10025F000B12094F3097FD12094F7B0F7590FFC29C
:10026F009020970B12094F3097FD12094F7B0420F6
:10027F00960B12094F3097FD12094F7B0820950BF3
:10028F0012094F3097FD12094F7B0C20940B120966
:0B029F004F3097FD12094F7B10AF039A
:0102AA002231
:100968005389F0438901C28DD28C758CFC758A1825
:07097800D2A9D2AFC2B922DF
:10070D00E4FB20B10E7F64FE12095330B1FD1209D6
:10071D004F7B0120B00B12094F30B0FD12094F7BFA
:10072D000220B20B12094F30B2FD12094F7B03208C
:0F073D00B30B12094F30B3FD12094F7B04AF030A
:01074C00228A
:10091B0075985043878053890F438920D28E758DEC
:0B092B00F4758BF4C2ABD2AFD2AC224B
:080A14008F993099FDC299226F
:050A2300C2B6C2B522BD
:02078C00AD07B7
:10078E00E4FBEBC394087480948050237E00748045
:10079E00A803088006CEA2E713CE13D8F8FFEDF516
:1007AE0082EF558224FF92B4D2B6C2B60B80D3D25A
:0307BE00B5C2B50C
:0107C1002215
:10089800AE05AC07AF0612078CAF04A80774800832
:1008A8008002C313D8FCF4F5807F017E001209533F
:0408B8007580FF2226
:050A2800C2B6C2B522B8
:0205A800A907A1
:1005AA00D2B5E4FBEBC394087480948050227E0099
:1005BA007401A803088005C333CE33CED8F9FFE906
:1005CA00F582EF558224FF92B4D2B6C2B60B80D41C
:1005DA00E4FBEBC394087480948050227E0074017B
:1005EA00A803088005C333CE33CED8F9FFEDF582D0
:1005FA00EF558224FF92B4D2B6C2B60B80D4C2B5EC
:01060A0022CD
:02060B00AD0739
:10060D00E4F9430501D2B5FBEBC3940874809480E3
:10061D0050227E007401A803088005C333CE33CE6B
:10062D00D8F9FFEDF582EF558224FF92B4C2B6D210
:10063D00B60B80D4E4FBEBC3940874809480501700
:10064D00D2B6C2B630B40DA8037401088002C3330C
:0D065D00D8FC42010B80DFC2B5C2B4AF0172
:01066A00226D
:1002AB00E4FD7F8E1205A8E52075F00A1200F9C453
:1002BB0054F0FFE52075F00A1200F9AEF0EF2EFDB9
:1002CB007F8C1205A8E52175F00A1200F9C454F0D1
:1002DB00FFE52175F00A1200F9AEF0EF2EFD7F88D5
:1002EB001205A8E52275F00A1200F9C454F0FFE5D7
:1002FB002275F00A1200F9AEF0EF2EFD7F86120583
:10030B00A8E52375F00A1200F9C454F0FFE5237534
:10031B00F00A1200F9AEF0EF2EFD7F841205A8E56E
:10032B002475F00A1200F9C454F0FFE52475F00AA5
:10033B001200F9AEF0EF2EFD7F821205A8E52575B0
:10034B00F00A1200F9C454F0FFE52575F00A12000B
:10035B00F9AEF0EF2EFD7F801205A8E52675F00AA9
:10036B001200F9C454F0FFE52675F00A1200F9AE3D
:10037B00F0EF2EFD7F8A1205A87D807F8E0205A8E7
:10038B007F8C12060BEFC4540F75F00AA4FEEF54CA
:10039B000F2EF5207F8812060BEFC4540F75F00A51
:1003AB00A4FEEF540F2EF5217F8612060BEFC454DB
:1003BB000F75F00AA4FEEF540F2EF5227F84120660
:1003CB000BEFC4540F75F00AA4FEEF540F2EF52358
:1003DB007F8212060BEFC4540F75F00AA4FEEF5484
:1003EB000F2EF5247F8012060BEFC4540F75F00A05
:1003FB00A4FEEF540F2EF5257F8A12060BEFC45483
:0C040B000F75F00AA4FEEF540F2EF5262A
:0104170022C2
:090A0B00D2A1D2A0C2A0C2A12216
:070A1C00C2A0D2A1D2A0226A
:0207C200AD0781
:1007C400E4FBEBC394087480948050237E0074800F
:1007D400A803088006CEA2E713CE13D8F8FFEDF5E0
:0F07E40082EF558224FF92A0D2A1C2A10B80D335
:0107F30022E3
:10082400E4FFFED2A0EEC39408748094805017D2E3
:10083400A130A00DA8067480088002C313D8FC421E
:0608440007C2A10E80DFD7
:01084A00228B
:0A09E300EF24FF92A0D2A1C2A122CE
:0B097F001207C212098AAF041207C25F
:0B098A00D2A0D2A1A2A0E433FFC2A1C2
:01099500223F
:10099600AC05AA07120A0B7FA01207C212098AAF7A
:0709A6000212097F020A1C86
:02084B00AC07F8
:10084D00E4FE120A0B7FA012097F120A0B7FA11280
:10085D0007C212098A120824AE077F011209E3129A
:04086D000A1CAF06AC
:010871002264
:0609D400C2A58F80D2A72E
:0809DA007F027EEFDEFEDFFC70
:0109E20022F2
:0A09ED00C2A61209D4C2A70209DA5B
:1008DF00CFCDCFCECCCE12015A7C007D0A12015A59
:0408EF00ED2430FFC5
:0A08F300D2A61209D4C2A70209DA46
:1009AD007F381209ED7F0C1209ED7F061209ED7FDC
:0409BD00010209ED3D
:1008FD00AE07EEFB7A0064017004ED148009EB6421
:0E090D00024A7009ED243F4480FF1209ED22DA
:0A09F700AC031208FDAF040208F380
:0608BC008B148A15891659
:1008C200E4FC1208FDAB14AA15A9168C82758300EC
:0C08D20012011BFF60061208F30C80E905
:0108DE0022F7
:0A07F400EF24FFFDEE34FFFC7F0A46
:0807FE008E1C8F1D8C1E8D1F47
:10080600E4FB7F01FEEBC3951FE51E6480F8748050
:0D08160098500AAC1CAD1D1201480B80E883
:0108230022B2
:040872008A168B1740
:10087600E4FA1208FDAA18EAFF7E00D394007480F9
:100886009480400D1207F4AC16AD171208DF1A80DB
:01089600E67B
:01089700223E
:04066B008B828A8371
:10066F00E4F519F51AF51B1208FDC3E583648094B0
:10067F0080400D7F2B1208F385831A85821B801013
:10068F007F2D1208F3C3E49582F51BE49583F51AC9
:10069F00851819AF197E00D3EF94007480948040B1
:0F06AF000E1207F4AC1AAD1B1208DF151980E408
:0106BE002219
:0406BF008A168B17F5
:1006C300E4FAFC1208FDAA18EAD39400748094801B
:1006D3004037EA24FFFDE434FFFC7F107E0012075D
:1006E300FEAC16AD17CFCDCFCECCCE12015AEF5400
:1006F3000FFCC3940A74809480EC5004243080026D
:090703002437FF1208F31A80BF2D
:01070C0022CA
:04074D008A168B1766
:10075100E4FA1208FDAA18EAFF7E00D3940074801F
:1007610094804026EF24FFFDEE34FFFC7F02120748
:10077100FEAC16AD17CFCDCFCECCCE12015AEF5471
:0A078100012430FF1208F31A80CDA6
:01078B00224B
:03000000020418DF
:0C041800787FE4F6D8FD75812902045FAE
:10000300E709F608DFFA8046E709F208DFFA803EDF
:1000130088828C83E709F0A3DFFA8032E309F608CC
:10002300DFFA8078E309F208DFFA807088828C8334
:10003300E309F0A3DFFA806489828A83E0A3F608E8
:10004300DFFA805889828A83E0A3F208DFFA804CC2
:1000530080D280FA80C680D4806980F28033801099
:1000630080A680EA809A80A880DA80E280CA803302
:1000730089828A83ECFAE493A3C8C582C8CCC5837A
:10008300CCF0A3C8C582C8CCC583CCDFE9DEE7804A
:100093000D89828A83E493A3F608DFF9ECFAA9F0C9
:1000A300EDFB2289828A83ECFAE0A3C8C582C8CC1F
:1000B300C583CCF0A3C8C582C8CCC583CCDFEADE38
:1000C300E880DB89828A83E493A3F208DFF980CC9A
:1000D30088F0EF60010E4E60C388F0ED2402B40493
:1000E3000050B9F582EB2402B4040050AF2323453A
:0600F3008223900053730C
:1000F900C2D530F707B2D563F0FF05F030E70CB28F
:10010900D5F4048463F0FF05F080018430D502F44E
:020119000422BE
:10011B00BB010CE58229F582E5833AF583E0225099
:10012B0006E92582F8E622BBFE06E92582F8E222E3
:0D013B00E58229F582E5833AF583E49322FD
:10014800EF8DF0A4A8F0CF8CF0A428CE8DF0A42ECB
:02015800FE2285
:10015A00BC000BBE0029EF8DF084FFADF022E4CC89
:10016A00F875F008EF2FFFEE33FEEC33FCEE9DEC52
:10017A00984005FCEE9DFE0FD5F0E9E4CEFD22ED98
:10018A00F8F5F0EE8420D21CFEADF075F008EF2FE2
:10019A00FFED33FD4007985006D5F0F222C398FDD3
:0501AA000FD5F0EA2270
:1004240002052AE493A3F8E493A34003F68001F2BF
:1004340008DFF48029E493A3F85407240CC8C333D9
:10044400C4540F4420C8834004F456800146F6DFA8
:10045400E4800B01020408102040809009C1E47E6E
:10046400019360BCA3FF543F30E509541FFEE4939D
:10047400A360010ECF54C025E060A840B8E493A364
:10048400FAE493A3F8E493A3C8C582C8CAC583CA8F
:10049400F0A3C8C582C8CAC583CADFE9DEE780BE47
:0109D3000023
:00000001FF
