:1003E40012060C7D3CE4FF1204E97D427F011204F5
:1003F400E97DA97F021204E97D857F031204E97D6A
:10040400857F041204E97DA97F051204E97D427FFA
:0D041400061204E97D3C7F071204E980C652
:0A05FA003F065B4F666D7D077F6FC3
:0605CB00C2A58F80D2A73B
:0805D1007F027EEFDEFEDFFC7D
:0105D90022FF
:0A05E600C2A61205CBC2A70205D180
:10053000CFCDCFCECCCE1201387C007D0A1201384F
:04054000ED2430FF77
:0A054400D2A61205CBC2A70205D112
:10054E00AE07EEFB7A0064017004ED148009EB64D3
:0E055E00024A7009ED243F4480FF1205E62298
:1005B7007F381205E67F0C1205E67F061205E67FF7
:0405C700010205E642
:0A05F000AC0312054EAF04020544EF
:06050D008B2E8A2F8930BD
:1005130012054EE4FDAB2EAA2FA9308D8275830000
:0C0523001200F9FF60061205440D80E98B
:01052F0022A9
:0A049400EF24FFFDEE34FFFC7F0AA9
:08049E008E2A8F2B8C2C8D2D72
:1004A6007F017E00E4FBEBC3952DE52C6480F87498
:0E04B6008098500AAC2AAD2B1201260B80E86C
:0104C4002215
:0404C5008A1D8B1EE3
:1004C90012054EAA1FEAFF7E00D39400748094801F
:0F04D900400D120494AC1DAD1E1205301A80E6C2
:0104E80022F1
:04035A008B828A8385
:10035E0012054EC3E58364809480400D7F2B1205F9
:10036E004485831985821A80107F2D120544C3E4BB
:10037E009582F51AE49583F519AA18EAFF7E00D343
:10038E00940074809480400D120494AC19AD1A122E
:05039E0005301A80E6A5
:0103A3002237
:04030F008A228B2390
:1003130012054EAA24EAD39400748094804037EAED
:1003230024FFFDE434FFFC7F107E0012049EAC2208
:10033300AD23CFCDCFCECCCE120138EF540FFEC3B9
:10034300940A74809480EE5004243080022437FF92
:060353001205441A80BFF0
:010359002281
:040421008A278B2873
:1004250012054EAA29EAFF7E00D3940074809480B9
:100435004026EF24FFFDEE34FFFC7F0212049EAC44
:1004450027AD28CFCDCFCECCCE120138EF54012425
:0804550030FF1205441A80CDAE
:01045D00227C
:040587007F647E000F
:10058B00EF1FAC0670011E4C600A7D027CEFDCFE97
:04059B00DDFC80EC17
:01059F002239
:040289008F088D0944
:10028D00780A7C007D007BFF7A0579FA7E007F0A73
:10029D001200D3E50814B4080050549002B675F05E
:1002AD0003A4C58325F0C583730202CE0202D202D8
:1002BD0002D60202DA0202DE0202E60202EE0202B9
:1002CD00F6D2A4800ED2A48012D2A48016D2A4801D
:1002DD001AC2A4D2A3D2A28016C2A4D2A3C2A28053
:1002ED000EC2A4C2A3D2A28006C2A4C2A3C2A2748B
:1002FD000A2509F8E6F5807F017E0012058BE4F5ED
:01030D00806F
:01030E0022CC
:10018D00E4FB7590FFC29320970E7F64FE12058BE2
:10019D003097FD1205877B0120960B12058730974E
:1001AD00FD1205877B0520950B1205873097FD12F3
:1001BD0005877B0920940B1205873097FD12058763
:1001CD007B0D7590FFC29220970B1205873097FD1E
:1001DD001205877B0220960B1205873097FD1205BD
:1001ED00877B0620950B1205873097FD1205877BBF
:1001FD000A20940B1205873097FD1205877B0E752B
:10020D0090FFC29120970B1205873097FD1205873D
:10021D007B0320960B1205873097FD1205877B0710
:10022D0020950B1205873097FD1205877B0B2094C7
:10023D000B1205873097FD1205877B0F7590FFC256
:10024D009020970B1205873097FD1205877B0420B0
:10025D00960B1205873097FD1205877B0820950BAD
:10026D001205873097FD1205877B0C20940B120524
:0B027D00873097FD1205877B10AF0350
:010288002253
:1005A0005389F0438901C28DD28C758CFC758A18F1
:0705B000D2A9D2AFC2B922AB
:1003A400E4FB20B10E7F64FE12058B30B1FD120513
:1003B400877B0120B00B12058730B0FD1205877BC7
:1003C4000220B20B12058730B2FD1205877B032091
:0F03D400B30B12058730B3FD1205877B04AF030F
:0103E30022F7
:10056C0075985043878053890F438920D28E758D9F
:0B057C00F4758BF4C2ABD2AFD2AC22FE
:080604008F993099FDC2992283
:05060C00C2B6C2B522D8
:02045E00AD07E8
:10046000E4FBEBC394087480948050237E00748076
:10047000A803088006CEA2E713CE13D8F8FFEDF547
:1004800082EF558224FF92B4D2B6C2B60B80D3D28B
:03049000B5C2B53D
:010493002246
:1004E900AE05AC07AF0612045EAF04A80774800816
:1004F9008002C313D8FCF4F5807F017E0012058BBE
:040509007580FF22D8
:030000000205DA1C
:0C05DA00787FE4F6D8FD7581300203E460
:10000300E709F608DFFA8046E709F208DFFA803EDF
:1000130088828C83E709F0A3DFFA8032E309F608CC
:10002300DFFA8078E309F208DFFA807088828C8334
:10003300E309F0A3DFFA806489828A83E0A3F608E8
:10004300DFFA805889828A83E0A3F208DFFA804CC2
:1000530080D280FA80C680D4806980F28033801099
:1000630080A680EA809A80A880DA80E280CA803302
:1000730089828A83ECFAE493A3C8C582C8CCC5837A
:10008300CCF0A3C8C582C8CCC583CCDFE9DEE7804A
:100093000D89828A83E493A3F608DFF9ECFAA9F0C9
:1000A300EDFB2289828A83ECFAE0A3C8C582C8CC1F
:1000B300C583CCF0A3C8C582C8CCC583CCDFEADE38
:1000C300E880DB89828A83E493A3F208DFF980CC9A
:1000D30088F0EF60010E4E60C388F0ED2402B40493
:1000E3000050B9F582EB2402B4040050AF2323453A
:0600F3008223900053730C
:1000F900BB010CE58229F582E5833AF583E02250BC
:1001090006E92582F8E622BBFE06E92582F8E22205
:0D011900E58229F582E5833AF583E493221F
:10012600EF8DF0A4A8F0CF8CF0A428CE8DF0A42EED
:02013600FE22A7
:10013800BC000BBE0029EF8DF084FFADF022E4CCAB
:10014800F875F008EF2FFFEE33FEEC33FCEE9DEC74
:10015800984005FCEE9DFE0FD5F0E9E4CEFD22EDBA
:10016800F8F5F0EE8420D21CFEADF075F008EF2F04
:10017800FFED33FD4007985006D5F0F222C398FDF5
:050188000FD5F0EA2292
:00000001FF
