:100DE70020200020202D20202D0020203A20203AEE
:010DF70000FB
:0C0DBD00013000012E00012D00012F006C
:10098C001207EDE524FB3395E0FA7518027D017F23
:10099C0001120CCBE525FB3395E0FA7518027D04AA
:1009AC007F01120CCBE526FB3395E0FA7518027D1E
:1009BC00077F01120CCBE527FB3395E0FA75180283
:1009CC007D017F02120CCBE528FB3395E0FA7518FC
:1009DC00027D047F02120CCBE529FB3395E0FA75FE
:0909EC0018027D077F02020CCB0A
:10000E00AF307E00EF64027010052DD3E52D940500
:10001E00748094804003E4F52DEF64034E60030278
:10002E0001857424252DF806AF24EF3395E0FED319
:10003E00EF9463EE648094804003E4F524AF25EFE3
:10004E003395E0FED3EF940CEE64809480400375FC
:10005E002501AF25EF3395E0FEEF64014E6024EFEE
:10006E0064034E601EEF64054E6018EF64074E6029
:10007E0012EF64084E600CEF640A4E6006EF640CDB
:10008E004E7018AF26EF3395E0FED3EF941FEE645B
:10009E008094805003020146020143AF25EF339551
:1000AE00E0FEEF64044E6012EF64064E600CEF64E7
:1000BE00094E6006EF640B4E7014AF26EF3395E0D9
:1000CE00FED3EF941EEE64809480406C8067AF2563
:1000DE00EF3395E0FEEF64024E705DE52475F0049B
:1000EE00120525AFF0EF3395E04F7011E52475F052
:1000FE0064120525AFF0EF3395E04F7012AF24EF89
:10010E003395E0FE7C017D901205DBED4C7014AF53
:10011E0026EF3395E0FED3EF941DEE64809480407D
:10012E00178012AF26EF3395E0FED3EF941CEE64EA
:10013E008094804003752601AF27EF3395E0FED300
:10014E00EF9417EE648094804003E4F527AF28EF18
:10015E003395E0FED3EF943BEE648094804003E44D
:10016E00F528AF29EF3395E0FED3EF943BEE648094
:10017E0094804003E4F529E5306404600302032A09
:10018E007424252DF816AF24EF3395E0C3648094C4
:10019E00805003752463AF25EF3395E0FEC3EF94D3
:1001AE0001EE64809480500375250CAF25EF3395D6
:1001BE00E0FEEF64014E6024EF64034E601EEF64B8
:1001CE00054E6018EF64074E6012EF64084E600C27
:1001DE00EF640A4E6006EF640C4E702DAF26EF33BF
:1001EE0095E0FEC3EF9401EE648094805003752673
:1001FE001FAF26EF3395E0FED3EF941FEE6480948D
:10020E008050030202FA0202F7AF25EF3395E0FEAB
:10021E00EF64044E6012EF64064E600CEF64094EFC
:10022E006006EF640B4E702DAF26EF3395E0FEC3E4
:10023E00EF9401EE64809480500375261EAF26EF76
:10024E003395E0FED3EF941EEE648094805003024B
:10025E0002FA0202F7AF25EF3395E0FEEF64024E8D
:10026E0060030202FAE52475F004120525AFF0EFE3
:10027E003395E04F7011E52475F064120525AFF04B
:10028E00EF3395E04F7012AF24EF3395E0FE7C0113
:10029E007D901205DBED4C7029AF26EF3395E0FE15
:1002AE00C3EF9401EE64809480500375261DAF2633
:1002BE00EF3395E0FED3EF941DEE64809480402CD6
:1002CE008027AF26EF3395E0FEC3EF9401EE6480F6
:1002DE009480500375261CAF26EF3395E0FED3EFC6
:1002EE00941CEE648094804003752601AF27EF3393
:1002FE0095E0C3648094805003752717AF28EF33C1
:10030E0095E0C364809480500375283BAF29EF338A
:10031E0095E0C364809480500375293BE52D7015DC
:10032E00E52F6401700F7BFF7A0D79E77D017F0168
:10033E00120D138011E524FB3395E0FA7518027D3A
:10034E00017F01120CCBE52D64017015E52F6401C0
:10035E00700F7BFF7A0D79E77D047F01120D1380FC
:10036E0011E525FB3395E0FA7518027D047F011225
:10037E000CCBE52D64027015E52F6401700F7BFF29
:10038E007A0D79E77D077F01120D138011E526FBAB
:10039E003395E0FA7518027D077F01120CCBE52D1F
:1003AE0064037015E52F6401700F7BFF7A0D79E7FA
:1003BE007D017F02120D138011E527FB3395E0FAC4
:1003CE007518027D017F02120CCBE52D64047015A9
:1003DE00E52F6401700F7BFF7A0D79E77D047F02B4
:1003EE00120D138011E528FB3395E0FA7518027D86
:1003FE00047F02120CCBE52D64057013E52F64010A
:10040E00700D7BFF7A0D79E77D077F02020D13E5F4
:10041E0029FB3395E0FA7518027D077F02120CCB8B
:01042E0022AB
:100A5800120DD3120E2A120DA67BFF7A0D79EA7DAC
:100A6800017F01120D137BFF7A0D79F17D017F0261
:100A7800120D13E4FD7F8E1209F512070D120BAE4D
:100A88008F30EF64017018AF2EFEEF7007752E01DE
:100A9800F52D800BEF64014E7005F52E12070DE55C
:100AA8002E1460080470D612098C80D112000E80B2
:010AB800CC71
:03000B00020C2BB9
:090C2B00C0E0C0D075D000C00784
:100C3400758CFE758A0C052CE52C7002052BC3946B
:100C4400E8E52B94034012752B00752C00E52F70FA
:090C5400047F0180027F008F2F54
:070C5D00D007D0D0D0E03237
:0A0E1B003F065B4F666D7D077F6F99
:090DC9000724170B130F29000683
:060DF800C2A58F80D2A706
:080DFE007F027EEFDEFEDFFC48
:010E060022C9
:0A0E0700C2A6120DF8C2A7020DFEEC
:100D3600CFCDCFCECCCE1205867C007D0A1205869D
:040D4600ED2430FF69
:0A0D4A00D2A6120DF8C2A7020DFE9A
:100D5400AE07EEFB7A0064017004ED148009EB64C5
:0E0D6400024A7009ED243F4480FF120E072260
:100DD3007F38120E077F0C120E077F06120E077F55
:040DE30001020E07F4
:0A0E1100AC03120D54AF04020D4AA9
:060D13008B148A158916FD
:100D1900120D54E4FDAB14AA15A9168D8275830032
:0C0D2900120547FF6006120D4A0D80E91C
:010D3500229B
:0A0C9A00EF24FFFDEE34FFFC7F0A9B
:080CA4008E198F1A8C1B8D1CA8
:100CAC007F017E00E4FBEBC3951CE51B6480F874AC
:0E0CBC008098500AAC19AD1A1205740B80E82E
:010CCA002207
:040CCB008A168B17E3
:100CCF00120D54AA18EAFF7E00D39400748094800A
:0F0CDF00400D120C9AAC16AD17120D361A80E6A6
:010CEE0022E3
:040B64008B828A8373
:100B6800120D54C3E58364809480400D7F2B120DD1
:100B78004A85832285822380107F2D120D4AC3E483
:100B88009582F523E49583F522AA21EAFF7E00D316
:100B9800940074809480400D120C9AAC22AD2312FC
:050BA8000D361A80E685
:010BAD002225
:040B19008A338B345C
:100B1D00120D54AA35EAD39400748094804037EABC
:100B2D0024FFFDE434FFFC7F107E00120CA4AC33D7
:100B3D00AD34CFCDCFCECCCE120586EF540FFEC344
:100B4D00940A74809480EE5004243080022437FF80
:060B5D00120D4A1A80BFD0
:010B6300226F
:040BEE008A388B397D
:100BF200120D54AA3AEAFF7E00D3940074809480C6
:100C02004026EF24FFFDEE34FFFC7F02120CA4AC61
:100C120038AD39CFCDCFCECCCE120586EF540124DC
:080C220030FF120D4A1A80CDCB
:010C2A0022A7
:040D8D007F647E0001
:100D9100EF1FAC0670011E4C600A7D027CEFDCFE89
:040DA100DDFC80EC09
:010DA500222B
:040906008F088D09C0
:10090A00780A7C007D007BFF7A0E791B7E007F0AC5
:10091A001204FFE50814B40800505490093375F026
:10092A0003A4C58325F0C5837302094B02094F024C
:10093A00095302095702095B02096302096B02099A
:10094A0073D2A4800ED2A48012D2A48016D2A4801C
:10095A001AC2A4D2A3D2A28016C2A4D2A3C2A280CF
:10096A000EC2A4C2A3D2A28006C2A4C2A3C2A27407
:10097A000A2509F8E6F5807F017E00120D91E4F55B
:01098A0080EC
:01098B002249
:10061100E4FB7590FFC29320970E7F64FE120D914B
:100621003097FD120D8D7B0120960B120D8D3097A9
:10063100FD120D8D7B0520950B120D8D3097FD124E
:100641000D8D7B0920940B120D8D3097FD120D8DB0
:100651007B0D7590FFC29220970B120D8D3097FD87
:10066100120D8D7B0220960B120D8D3097FD120D10
:100671008D7B0620950B120D8D3097FD120D8D7B14
:100681000A20940B120D8D3097FD120D8D7B0E7586
:1006910090FFC29120970B120D8D3097FD120D8D99
:1006A1007B0320960B120D8D3097FD120D8D7B076C
:1006B10020950B120D8D3097FD120D8D7B0B209423
:1006C1000B120D8D3097FD120D8D7B0F7590FFC2B2
:1006D1009020970B120D8D3097FD120D8D7B04200C
:1006E100960B120D8D3097FD120D8D7B0820950B09
:1006F100120D8D3097FD120D8D7B0C20940B120D78
:0B0701008D3097FD120D8D7B10AF03B3
:01070C0022CA
:100DA6005389F0438901C28DD28C758CFC758A18E3
:070DB600D2A9D2AFC2B9229D
:100BAE00E4FB20B10E7F64FE120D9130B1FD120DEB
:100BBE008D7B0120B00B120D8D30B0FD120D8D7B93
:100BCE000220B20B120D8D30B2FD120D8D7B032063
:0F0BDE00B30B120D8D30B3FD120D8D7B04AF03E1
:010BED0022E5
:100D720075985043878053890F438920D28E758D91
:0B0D8200F4758BF4C2ABD2AFD2AC22F0
:080003008F993099FDC299228A
:050E2500C2B6C2B522B7
:020C6400AD07DA
:100C6600E4FBEBC394087480948050237E00748068
:100C7600A803088006CEA2E713CE13D8F8FFEDF539
:100C860082EF558224FF92B4D2B6C2B60B80D3D27D
:030C9600B5C2B52F
:010C99002238
:100CEF00AE05AC07AF06120C64AF04A807748008FA
:100CFF008002C313D8FCF4F5807F017E00120D91A2
:040D0F007580FF22CA
:050E2A00C2B6C2B522B2
:0209F500A90750
:1009F700D2B5E4FBEBC394087480948050227E0048
:100A07007401A803088005C333CE33CED8F9FFE9B4
:100A1700F582EF558224FF92B4D2B6C2B60B80D4CA
:100A2700E4FBEBC394087480948050227E00740129
:100A3700A803088005C333CE33CED8F9FFEDF5827E
:100A4700EF558224FF92B4D2B6C2B60B80D4C2B59A
:010A5700227C
:020AB900AD0787
:100ABB00E4F9430501D2B5FBEBC394087480948031
:100ACB0050227E007401A803088005C333CE33CEB9
:100ADB00D8F9FFEDF582EF558224FF92B4C2B6D25E
:100AEB00B60B80D4E4FBEBC394087480948050174E
:100AFB00D2B6C2B630B40DA8037401088002C3335A
:0D0B0B00D8FC42010B80DFC2B5C2B4AF01BF
:010B180022BA
:10070D00E4FD7F8E1209F5E52475F00A120525C466
:10071D0054F0FFE52475F00A120525AEF0EF2EFD1D
:10072D007F8C1209F5E52575F00A120525C454F0E4
:10073D00FFE52575F00A120525AEF0EF2EFD7F8839
:10074D001209F5E52675F00A120525C454F0FFE5EA
:10075D002675F00A120525AEF0EF2EFD7F861209E3
:10076D00F5E52775F00A120525C454F0FFE5277548
:10077D00F00A120525AEF0EF2EFD7F841209F5E586
:10078D002875F00A120525C454F0FFE52875F00A06
:10079D00120525AEF0EF2EFD7F821209F5E52975C4
:1007AD00F00A120525C454F0FFE52975F00A12056B
:1007BD0025AEF0EF2EFD7F801209F5E52A75F00AC2
:1007CD00120525C454F0FFE52A75F00A120525AE71
:1007DD00F0EF2EFD7F8A1209F57D807F8E0209F5DF
:1007ED007F8C120AB9EFC4540F75F00AA4FEEF54B2
:1007FD000F2EF5247F88120AB9EFC4540F75F00A35
:10080D00A4FEEF540F2EF5257F86120AB9EFC454BE
:10081D000F75F00AA4FEEF540F2EF5267F84120AF1
:10082D00B9EFC4540F75F00AA4FEEF540F2EF5273F
:10083D007F82120AB9EFC4540F75F00AA4FEEF546B
:10084D000F2EF5287F80120AB9EFC4540F75F00AE8
:10085D00A4FEEF540F2EF5297F8A120AB9EFC45466
:0C086D000F75F00AA4FEEF540F2EF52AC0
:01087900225C
:0300000002087A79
:0C087A00787FE4F6D8FD75813A0208C1D1
:10042F00E709F608DFFA8046E709F208DFFA803EAF
:10043F0088828C83E709F0A3DFFA8032E309F6089C
:10044F00DFFA8078E309F208DFFA807088828C8304
:10045F00E309F0A3DFFA806489828A83E0A3F608B8
:10046F00DFFA805889828A83E0A3F208DFFA804C92
:10047F0080D280FA80C680D4806980F28033801069
:10048F0080A680EA809A80A880DA80E280CA8033D2
:10049F0089828A83ECFAE493A3C8C582C8CCC5834A
:1004AF00CCF0A3C8C582C8CCC583CCDFE9DEE7801A
:1004BF000D89828A83E493A3F608DFF9ECFAA9F099
:1004CF00EDFB2289828A83ECFAE0A3C8C582C8CCEF
:1004DF00C583CCF0A3C8C582C8CCC583CCDFEADE08
:1004EF00E880DB89828A83E493A3F208DFF980CC6A
:1004FF0088F0EF60010E4E60C388F0ED2402B40463
:10050F000050B9F582EB2402B4040050AF23234509
:06051F00822390047F73AB
:10052500C2D530F707B2D563F0FF05F030E70CB25E
:10053500D5F4048463F0FF05F080018430D502F41E
:0205450004228E
:10054700BB010CE58229F582E5833AF583E0225069
:1005570006E92582F8E622BBFE06E92582F8E222B3
:0D056700E58229F582E5833AF583E49322CD
:10057400EF8DF0A4A8F0CF8CF0A428CE8DF0A42E9B
:02058400FE2255
:10058600BC000BBE0029EF8DF084FFADF022E4CC59
:10059600F875F008EF2FFFEE33FEEC33FCEE9DEC22
:1005A600984005FCEE9DFE0FD5F0E9E4CEFD22ED68
:1005B600F8F5F0EE8420D21CFEADF075F008EF2FB2
:1005C600FFED33FD4007985006D5F0F222C398FDA3
:0505D6000FD5F0EA2240
:1005DB00C2D5EC30E709B2D5E4C39DFDE49CFCEE3B
:1005EB0030E715B2D5E4C39FFFE49EFE120586C328
:1005FB00E49DFDE49CFC800312058630D507C3E423
:06060B009FFFE49EFE22A9
:10088600020A58E493A3F8E493A34003F68001F226
:1008960008DFF48029E493A3F85407240CC8C33373
:1008A600C4540F4420C8834004F456800146F6DF42
:1008B600E4800B0102040810204080900DBDE47E08
:1008C600019360BCA3FF543F30E509541FFEE49337
:1008D600A360010ECF54C025E060A840B8E493A3FE
:1008E600FAE493A3F8E493A3C8C582C8CAC583CA29
:1008F600F0A3C8C582C8CAC583CADFE9DEE780BEE1
:010DD2000020
:00000001FF
