:1008C300577274697465204F4B002020202020202C
:1008D3002020200052656164204F4B0020202020FF
:0408E30020202000B1
:070A1B000137000235000065
:10038B00120A07751805AB36AA357D017F011208D5
:10039B00E712075F8F37EF640170150536E536708E
:1003AB00020535751805FBAA357D017F011208E79B
:1003BB00E53764027016E53615367002153575187B
:1003CB0005AB36AA357D017F011208E7E5376403DB
:1003DB00703DAD36FF1209F07F057E001209ADE5C9
:1003EB0035FD7F011209F07F057E001209AD7BFF01
:1003FB007A0879C37D017F0212092F7FE87E0312F1
:10040B0009AD7BFF7A0879CD7D017F0212092FE5BB
:10041B00376404600302039CFF12089C7535008F40
:10042B00367F0112089CEFFEEE4235751805AB3690
:10043B00AA357D017F011208E77BFF7A0879D77D0A
:10044B00017F0212092F7FE87E031209AD7BFF7A31
:0D045B000879DF7D017F0212092F02039C4A
:0A0A59003F065B4F666D7D077F6F5F
:090A22000724170B130F2900062D
:060A2C00C2A58F80D2A7D5
:080A32007F027EEFDEFEDFFC17
:010A3A002299
:0A0A3B00C2A6120A2CC2A7020A325A
:10095200CFCDCFCECCCE12015A7C007D0A12015AE5
:04096200ED2430FF51
:0A096600D2A6120A2CC2A7020A3220
:10097000AE07EEFB7A0064017004ED148009EB64AD
:0E098000024A7009ED243F4480FF120A3B2218
:100A07007F38120A3B7F0C120A3B7F06120A3B7F94
:040A170001020A3B93
:0A0A4500AC03120970AF0402096649
:06092F008B148A158916E5
:10093500120970E4FDAB14AA15A9168D8275830002
:0C09450012011BFF60061209660D80E91C
:010951002283
:0A084400EF24FFFDEE34FFFC7F0AF5
:08084E008E198F1A8C1B8D1C02
:100856007F017E00E4FBEBC3951CE51B6480F87406
:0E0866008098500AAC19AD1A1201480B80E8B8
:010874002261
:0408E7008A168B17CB
:1008EB00120970AA18EAFF7E00D3940074809480DA
:0F08FB00400D120844AC16AD171209521A80E6D0
:01090A0022CA
:040715008B828A83C6
:10071900120970C3E58364809480400D7F2B120910
:100729006685832285822380107F2D120966C3E4A2
:100739009582F523E49583F522AA21EAFF7E00D369
:10074900940074809480400D120844AC22AD2312A9
:0507590009521A80E6C0
:01075E002278
:0406CA008A2D8B2EBC
:1006CE00120970AA2FEAD39400748094804037EAFE
:1006DE0024FFFDE434FFFC7F107E0012084EAC2D8B
:1006EE00AD2ECFCDCFCECCCE12015AEF540FFEC3CE
:1006FE00940A74809480EE5004243080022437FFD4
:06070E001209661A80BF0B
:0107140022C2
:04079F008A328B33DC
:1007A300120970AA34EAFF7E00D394007480948007
:1007B3004026EF24FFFDEE34FFFC7F0212084EAC0F
:1007C30032AD33CFCDCFCECCCE12015AEF5401246C
:0807D30030FF1209661A80CD07
:0107DB0022FB
:0409A9007F647E00E9
:1009AD00EF1FAC0670011E4C600A7D027CEFDCFE71
:0409BD00DDFC80ECF1
:0109C1002213
:040581008F088D0949
:10058500780A7C007D007BFF7A0A79597E007F0A14
:100595001200D3E50814B4080050549005AE75F068
:1005A50003A4C58325F0C583730205C60205CA02E7
:1005B50005CE0205D20205D60205DE0205E60205D4
:1005C500EED2A4800ED2A48012D2A48016D2A4802A
:1005D5001AC2A4D2A3D2A28016C2A4D2A3C2A28058
:1005E5000EC2A4C2A3D2A28006C2A4C2A3C2A27490
:1005F5000A2509F8E6F5807F017E001209ADE4F5CC
:010605008074
:0106060022D1
:1001AF00E4FB7590FFC29320970E7F64FE1209AD9A
:1001BF003097FD1209A97B0120960B1209A93097E0
:1001CF00FD1209A97B0520950B1209A93097FD1285
:1001DF0009A97B0920940B1209A93097FD1209A9CF
:1001EF007B0D7590FFC29220970B1209A93097FDD6
:1001FF001209A97B0220960B1209A93097FD12094B
:10020F00A97B0620950B1209A93097FD1209A97B2E
:10021F000A20940B1209A93097FD1209A97B0E75BC
:10022F0090FFC29120970B1209A93097FD1209A9CF
:10023F007B0320960B1209A93097FD1209A97B07A2
:10024F0020950B1209A93097FD1209A97B0B209459
:10025F000B1209A93097FD1209A97B0F7590FFC2E8
:10026F009020970B1209A93097FD1209A97B042042
:10027F00960B1209A93097FD1209A97B0820950B3F
:10028F001209A93097FD1209A97B0C20940B1209B2
:0B029F00A93097FD1209A97B10AF03E6
:0102AA002231
:1009C2005389F0438901C28DD28C758CFC758A18CB
:0709D200D2A9D2AFC2B92285
:10075F00E4FB20B10E7F64FE1209AD30B1FD12092A
:10076F00A97B0120B00B1209A930B0FD1209A97B9A
:10077F000220B20B1209A930B2FD1209A97B032086
:0F078F00B30B1209A930B3FD1209A97B04AF0304
:01079E002238
:10098E0075985043878053890F438920D28E758D79
:0B099E00F4758BF4C2ABD2AFD2AC22D8
:080A6C008F993099FDC2992217
:050A7B00C2B6C2B52265
:0207DC00AD0767
:1007DE00E4FBEBC394087480948050237E007480F5
:1007EE00A803088006CEA2E713CE13D8F8FFEDF5C6
:1007FE0082EF558224FF92B4D2B6C2B60B80D3D20A
:03080E00B5C2B5BB
:0108110022C4
:10090B00AE05AC07AF061207DCAF04A8077480086E
:10091B008002C313D8FCF4F5807F017E001209AD71
:04092B007580FF22B2
:050A8000C2B6C2B52260
:02060700A90741
:10060900D2B5E4FBEBC394087480948050227E0039
:100619007401A803088005C333CE33CED8F9FFE9A6
:10062900F582EF558224FF92B4D2B6C2B60B80D4BC
:10063900E4FBEBC394087480948050227E0074011B
:10064900A803088005C333CE33CED8F9FFEDF58270
:10065900EF558224FF92B4D2B6C2B60B80D4C2B58C
:01066900226E
:02066A00AD07DA
:10066C00E4F9430501D2B5FBEBC394087480948084
:10067C0050227E007401A803088005C333CE33CE0C
:10068C00D8F9FFEDF582EF558224FF92B4C2B6D2B1
:10069C00B60B80D4E4FBEBC39408748094805017A1
:1006AC00D2B6C2B630B40DA8037401088002C333AD
:0D06BC00D8FC42010B80DFC2B5C2B4AF0113
:0106C900220E
:1002AB00E4FD7F8E120607E52475F00A1200F9C4EF
:1002BB0054F0FFE52475F00A1200F9AEF0EF2EFDB5
:1002CB007F8C120607E52575F00A1200F9C454F06D
:1002DB00FFE52575F00A1200F9AEF0EF2EFD7F88D1
:1002EB00120607E52675F00A1200F9C454F0FFE573
:1002FB002675F00A1200F9AEF0EF2EFD7F8612067E
:10030B0007E52775F00A1200F9C454F0FFE52775CD
:10031B00F00A1200F9AEF0EF2EFD7F84120607E50E
:10032B002875F00A1200F9C454F0FFE52875F00A9D
:10033B001200F9AEF0EF2EFD7F82120607E529754C
:10034B00F00A1200F9C454F0FFE52975F00A120007
:10035B00F9AEF0EF2EFD7F80120607E52A75F00A45
:10036B001200F9C454F0FFE52A75F00A1200F9AE39
:10037B00F0EF2EFD7F8A1206077D807F8E02060727
:100468007F8C12066AEFC4540F75F00AA4FEEF548D
:100478000F2EF5247F8812066AEFC4540F75F00A10
:10048800A4FEEF540F2EF5257F8612066AEFC4549A
:100498000F75F00AA4FEEF540F2EF5267F8412067E
:1004A8006AEFC4540F75F00AA4FEEF540F2EF52717
:1004B8007F8212066AEFC4540F75F00AA4FEEF5447
:1004C8000F2EF5287F8012066AEFC4540F75F00AC4
:1004D800A4FEEF540F2EF5297F8A12066AEFC45442
:0C04E8000F75F00AA4FEEF540F2EF52A49
:0104F40022E5
:090A6300D2A1D2A0C2A0C2A122BE
:070A7400C2A0D2A1D2A02212
:02081200AD0730
:10081400E4FBEBC394087480948050237E007480BE
:10082400A803088006CEA2E713CE13D8F8FFEDF58F
:0F08340082EF558224FF92A0D2A1C2A10B80D3E4
:010843002292
:10087500E4FFFED2A0EEC39408748094805017D292
:10088500A130A00DA8067480088002C313D8FC42CD
:0608950007C2A10E80DF86
:01089B00223A
:0A0A4F00EF24FF92A0D2A1C2A12261
:0B09D9001208121209E4AF0412081209
:0B09E400D2A0D2A1A2A0E433FFC2A168
:0109EF0022E5
:1009F000AC05AA07120A637FA01208121209E4AF1D
:070A0000021209D9020A7479
:02089C00AC07A7
:10089E00E4FE120A637FA01209D9120A637FA11225
:1008AE0008121209E4120875AE077F01120A4F12E0
:0408BE000A74AF0603
:0108C2002213
:030000000204F502
:0C04F500787FE4F6D8FD75813702053CE5
:10000300E709F608DFFA8046E709F208DFFA803EDF
:1000130088828C83E709F0A3DFFA8032E309F608CC
:10002300DFFA8078E309F208DFFA807088828C8334
:10003300E309F0A3DFFA806489828A83E0A3F608E8
:10004300DFFA805889828A83E0A3F208DFFA804CC2
:1000530080D280FA80C680D4806980F28033801099
:1000630080A680EA809A80A880DA80E280CA803302
:1000730089828A83ECFAE493A3C8C582C8CCC5837A
:10008300CCF0A3C8C582C8CCC583CCDFE9DEE7804A
:100093000D89828A83E493A3F608DFF9ECFAA9F0C9
:1000A300EDFB2289828A83ECFAE0A3C8C582C8CC1F
:1000B300C583CCF0A3C8C582C8CCC583CCDFEADE38
:1000C300E880DB89828A83E493A3F208DFF980CC9A
:1000D30088F0EF60010E4E60C388F0ED2402B40493
:1000E3000050B9F582EB2402B4040050AF2323453A
:0600F3008223900053730C
:1000F900C2D530F707B2D563F0FF05F030E70CB28F
:10010900D5F4048463F0FF05F080018430D502F44E
:020119000422BE
:10011B00BB010CE58229F582E5833AF583E0225099
:10012B0006E92582F8E622BBFE06E92582F8E222E3
:0D013B00E58229F582E5833AF583E49322FD
:10014800EF8DF0A4A8F0CF8CF0A428CE8DF0A42ECB
:02015800FE2285
:10015A00BC000BBE0029EF8DF084FFADF022E4CC89
:10016A00F875F008EF2FFFEE33FEEC33FCEE9DEC52
:10017A00984005FCEE9DFE0FD5F0E9E4CEFD22ED98
:10018A00F8F5F0EE8420D21CFEADF075F008EF2FE2
:10019A00FFED33FD4007985006D5F0F222C398FDD3
:0501AA000FD5F0EA2270
:1005010002038BE493A3F8E493A34003F68001F282
:1005110008DFF48029E493A3F85407240CC8C333FB
:10052100C4540F4420C8834004F456800146F6DFCA
:10053100E4800B0102040810204080900A1BE47E35
:10054100019360BCA3FF543F30E509541FFEE493BF
:10055100A360010ECF54C025E060A840B8E493A386
:10056100FAE493A3F8E493A3C8C582C8CAC583CAB1
:10057100F0A3C8C582C8CAC583CADFE9DEE780BE69
:010A2B0000CA
:00000001FF
