:100327000D040D041404140416041604140812040E
:100337001204110411040F040F040D08140414040B
:1003470012041204110411040F08140414041204F3
:100357001204110411040F080D040D0414041404ED
:1003670016041604140812041204110411040F04CD
:050377000F040D08FF5A
:1002CA00204A0A0000F88CF8F3F95BF9B8FA15FA33
:1002DA0067FAB9FB04FB4BFB90FBCFFC10FC44FC18
:1002EA0079FCACFCDCFD09FD34FD5CFD82FDA6FD5C
:1002FA00C8FDE8FE06FE22FE3DFE56FE6EFE85FEA7
:10030A009AFEAEFEC1FED3FEE4FEF4FF030109002D
:03031A00010800D7
:1003BF00120434E50890032793FFF460208F09059A
:1003CF0008E5089375F07DA4FFAEF012044B050805
:1003DF00C28C7F057E0012044BD28C80D6C28C80DB
:0103EF00FE0F
:03000B0002037C71
:10037C00C0E0C0D075D000C000C004C005C006C02D
:10038C0007E50925E0240AF8E6FE08E64E6015E5C7
:10039C000925E0240AF8E6FC08E6FDECF58CAF052F
:1003AC008F8AB2A5D007D006D005D004D000D0D00B
:0303BC00D0E0325C
:09031D000754170B130F29000609
:10044B00EF1FAC0670011E4C600A7D027CEFDCFED8
:04045B00DDFC80EC58
:01045F00227A
:100434005389F0438901C28DD28C758CFC758A185E
:07044400D2A9D2AFC2B92218
:05046000C2B6C2B52286
:02020700A90745
:10020900D2B5E4FBEBC394087480948050227E003D
:100219007401A803088005C333CE33CED8F9FFE9AA
:10022900F582EF558224FF92B4D2B6C2B60B80D4C0
:10023900E4FBEBC394087480948050227E0074011F
:10024900A803088005C333CE33CED8F9FFEDF58274
:10025900EF558224FF92B4D2B6C2B60B80D4C2B590
:010269002272
:02026A00AD07DE
:10026C00E4F9430501D2B5FBEBC394087480948088
:10027C0050227E007401A803088005C333CE33CE10
:10028C00D8F9FFEDF582EF558224FF92B4C2B6D2B5
:10029C00B60B80D4E4FBEBC39408748094805017A5
:1002AC00D2B6C2B630B40DA8037401088002C333B1
:0D02BC00D8FC42010B80DFC2B5C2B4AF0117
:0102C9002212
:10000E00E4FD7F8E120207E55475F00A120412C445
:10001E0054F0FFE55475F00A120412AEF0EF2EFD07
:10002E007F8C120207E55575F00A120412C454F0C3
:10003E00FFE55575F00A120412AEF0EF2EFD7F8823
:10004E00120207E55675F00A120412C454F0FFE5C9
:10005E005675F00A120412AEF0EF2EFD7F861202D4
:10006E0007E55775F00A120412C454F0FFE55775F0
:10007E00F00A120412AEF0EF2EFD7F84120207E595
:10008E005875F00A120412C454F0FFE55875F00AC0
:10009E00120412AEF0EF2EFD7F82120207E55975A3
:1000AE00F00A120412C454F0FFE55975F00A120456
:1000BE0012AEF0EF2EFD7F80120207E55A75F00AA0
:1000CE00120412C454F0FFE55A75F00A120412AE6F
:1000DE00F0EF2EFD7F8A1202077D807F8E020207CF
:1000EE007F8C12026AEFC4540F75F00AA4FEEF540F
:1000FE000F2EF5547F8812026AEFC4540F75F00A62
:10010E00A4FEEF540F2EF5557F8612026AEFC454EB
:10011E000F75F00AA4FEEF540F2EF5567F841202CF
:10012E006AEFC4540F75F00AA4FEEF540F2EF55764
:10013E007F8212026AEFC4540F75F00AA4FEEF54C8
:10014E000F2EF5587F8012026AEFC4540F75F00A15
:10015E00A4FEEF540F2EF5597F8A12026AEFC45493
:0C016E000F75F00AA4FEEF540F2EF55A96
:01017A002262
:05000300007FE3DFFEB9
:0100080022D5
:0403F000AD07AC06A3
:1003F400E4FBFAED25E0FFEC33FEC3EB9FEA9E50ED
:0D0404000CB2A51200030BBB00010A80E63C
:0104110022C8
:0300000002017B7F
:0C017B00787FE4F6D8FD75815A0201C2BD
:10041200C2D530F707B2D563F0FF05F030E70CB272
:10042200D5F4048463F0FF05F080018430D502F432
:020432000422A2
:100187000203BFE493A3F8E493A34003F68001F2CC
:1001970008DFF48029E493A3F85407240CC8C33379
:1001A700C4540F4420C8834004F456800146F6DF48
:1001B700E4800B01020408102040809002CAE47E0C
:1001C700019360BCA3FF543F30E509541FFEE4933D
:1001D700A360010ECF54C025E060A840B8E493A304
:1001E700FAE493A3F8E493A3C8C582C8CAC583CA2F
:1001F700F0A3C8C582C8CAC583CADFE9DEE780BEE7
:0103260000D6
:00000001FF
