:1005D50050617373776F72643A004F4B2000455238
:0205E5005200C2
:1002BF00E4F508F509F50AF50BF50CF50D1205C176
:1002CF007BFF7A0579D57D017F011205491201C3A4
:1002DF007508008F09E509450860F2D3E509940A0E
:1002EF00E508648094805041C3E50D9404E50C94B7
:1002FF00005028AE0AAF0B7C007D0A1201268E0A31
:10030F008F0BAE08AF0912018DED250BF50BEC35F8
:10031F000AF50A050DE50D7002050C751204AB0BFD
:10032F00AA0A7D017F02120525E509640B450870B5
:10033F0036E50BB4290DE50AB409087BFF7A057978
:10034F00DF80067BFF7A0579E37D0E7F0112054979
:10035F00E4F50AF50BF50CF50D751204AB0BAA0AB3
:10036F007D017F02120525E509640C450860030233
:10037F0002DCF50AF50BF50CF50D751204AB0BAAA3
:0B038F000A7D017F021205250202DC3E
:0A0616003F065B4F666D7D077F6FA6
:0605E700C2A58F80D2A71F
:0805ED007F027EEFDEFEDFFC61
:0105F50022E3
:0A060200C2A61205E7C2A70205ED2B
:10056C00CFCDCFCECCCE1201387C007D0A12013813
:04057C00ED2430FF3B
:0A058000D2A61205E7C2A70205ED9E
:10058A00AE07EEFB7A0064017004ED148009EB6497
:0E059A00024A7009ED243F4480FF120602223F
:1005C1007F381206027F0C1206027F061206027F96
:0405D100010206021B
:0A060C00AC0312058AAF040205805A
:060549008B0E8A0F8910E1
:10054F0012058AE4FDAB0EAA0FA9108D82758300E8
:0C055F001200F9FF60061205800D80E913
:01056B00226D
:0A04F400EF24FFFDEE34FFFC7F0A49
:0804FE008E138F148C158D166E
:100506007F017E00E4FBEBC39516E5156480F87465
:0E0516008098500AAC13AD141201260B80E839
:0105240022B4
:040525008A108B119C
:1005290012058AAA12EAFF7E00D39400748094808F
:0F053900400D1204F4AC10AD1112056C1A80E6DF
:010548002290
:04046D008B828A8371
:1004710012058AC3E58364809480400D7F2B1205A9
:100481008085832985822A80107F2D120580C3E40F
:100491009582F52AE49583F529AA28EAFF7E00D3FF
:1004A100940074809480400D1204F4AC29AD2A129A
:0504B100056C1A80E655
:0104B6002223
:040422008A2D8B2E66
:1004260012058AAA2FEAD39400748094804037EA92
:1004360024FFFDE434FFFC7F107E001204FEAC2D89
:10044600AD2ECFCDCFCECCCE120138EF540FFEC39A
:10045600940A74809480EE5004243080022437FF7E
:060466001205801A80BFA0
:01046C00226D
:0404B7008A328B33C7
:1004BB0012058AAA34EAFF7E00D3940074809480DC
:1004CB004026EF24FFFDEE34FFFC7F021204FEAC4E
:1004DB0032AD33CFCDCFCECCCE120138EF54012479
:0804EB0030FF1205801A80CDDC
:0104F30022E6
:0405A8007F647E00EE
:1005AC00EF1FAC0670011E4C600A7D027CEFDCFE76
:0405BC00DDFC80ECF6
:0105C0002218
:06039A008F178C188D196D
:1003A000781A7C007D007BFF7A0679167E007F0A32
:1003B0001200D3E51714B4080050549003C975F027
:1003C00003A4C58325F0C583730203E10203E5029C
:1003D00003E90203ED0203F10203F902040102043E
:1003E00009D2A4800ED2A48012D2A48016D2A480F6
:1003F0001AC2A4D2A3D2A28016C2A4D2A3C2A2803F
:100400000EC2A4C2A3D2A28006C2A4C2A3C2A27476
:100410001A2519F8E6F5807F017E001205ACE4F597
:01042000805B
:0104210022B8
:1001C300E4FB7590FFC29320970E7F64FE1205AC8B
:1001D3003097FD1205A87B0120960B1205A83097D6
:1001E300FD1205A87B0520950B1205A83097FD127B
:1001F30005A87B0920940B1205A83097FD1205A8CA
:100203007B0D7590FFC29220970B1205A83097FDC6
:100213001205A87B0220960B1205A83097FD120544
:10022300A87B0620950B1205A83097FD1205A87B25
:100233000A20940B1205A83097FD1205A87B0E75B2
:1002430090FFC29120970B1205A83097FD1205A8C5
:100253007B0320960B1205A83097FD1205A87B0798
:1002630020950B1205A83097FD1205A87B0B20944F
:100273000B1205A83097FD1205A87B0F7590FFC2DE
:100283009020970B1205A83097FD1205A87B042038
:10029300960B1205A83097FD1205A87B0820950B35
:1002A3001205A83097FD1205A87B0C20940B1205AC
:0B02B300A83097FD1205A87B10AF03D8
:0102BE00221D
:030000000205F600
:0C05F600787FE4F6D8FD7581340202BF66
:10000300E709F608DFFA8046E709F208DFFA803EDF
:1000130088828C83E709F0A3DFFA8032E309F608CC
:10002300DFFA8078E309F208DFFA807088828C8334
:10003300E309F0A3DFFA806489828A83E0A3F608E8
:10004300DFFA805889828A83E0A3F208DFFA804CC2
:1000530080D280FA80C680D4806980F28033801099
:1000630080A680EA809A80A880DA80E280CA803302
:1000730089828A83ECFAE493A3C8C582C8CCC5837A
:10008300CCF0A3C8C582C8CCC583CCDFE9DEE7804A
:100093000D89828A83E493A3F608DFF9ECFAA9F0C9
:1000A300EDFB2289828A83ECFAE0A3C8C582C8CC1F
:1000B300C583CCF0A3C8C582C8CCC583CCDFEADE38
:1000C300E880DB89828A83E493A3F208DFF980CC9A
:1000D30088F0EF60010E4E60C388F0ED2402B40493
:1000E3000050B9F582EB2402B4040050AF2323453A
:0600F3008223900053730C
:1000F900BB010CE58229F582E5833AF583E02250BC
:1001090006E92582F8E622BBFE06E92582F8E22205
:0D011900E58229F582E5833AF583E493221F
:10012600EF8DF0A4A8F0CF8CF0A428CE8DF0A42EED
:02013600FE22A7
:10013800BC000BBE0029EF8DF084FFADF022E4CCAB
:10014800F875F008EF2FFFEE33FEEC33FCEE9DEC74
:10015800984005FCEE9DFE0FD5F0E9E4CEFD22EDBA
:10016800F8F5F0EE8420D21CFEADF075F008EF2F04
:10017800FFED33FD4007985006D5F0F222C398FDF5
:050188000FD5F0EA2292
:10018D00C2D5EC30E709B2D5E4C39DFDE49CFCEE8D
:10019D0030E715B2D5E4C39FFFE49EFE120138C3CC
:1001AD00E49DFDE49CFC800312013830D507C3E4C7
:0601BD009FFFE49EFE22FC
:00000001FF
