:0C097E000133000131000132000134009F
:10068D001209397531051206CE8F32EF64017028CB
:10069D000534533403AF34FEEF7002F531EF6401CE
:1006AD004E7003753132EF64024E700375314BEFAE
:1006BD0064034E7003753164AD347F011204AF8055
:0106CD00C567
:03000B000207E405
:1007E400C0E0C0D0758A9C758CFF0533C3E5339493
:1007F40064748094804003753300E533C3953150AD
:0C08040004D2908002C290D0D0D0E0322C
:0A09D5003F065B4F666D7D077F6FE4
:09098A00071B170B130F290006CF
:0609A800C2A58F80D2A75A
:0809AE007F027EEFDEFEDFFC9C
:0109B600221E
:0A09B700C2A61209A8C2A70209AEE9
:1008C900CFCDCFCECCCE1201657C007D0A12016559
:0408D900ED2430FFDB
:0A08DD00D2A61209A8C2A70209AEB4
:1008E700AE07EEFB7A0064017004ED148009EB6437
:0E08F700024A7009ED243F4480FF1209B72227
:100994007F381209B77F0C1209B77F061209B77F97
:0409A400010209B78C
:0A09C100AC031208E7AF040208DDE2
:0608A6008B398A3A893B00
:1008AC001208E7E4FDAB39AA3AA93B8D82758300A7
:0C08BC00120126FF60061208DD0D80E925
:0108C800220D
:0A07B300EF24FFFDEE34FFFC7F0A87
:0807BD008E358F368C378D3824
:1007C5007F017E00E4FBEBC39538E5376480F87460
:0E07D5008098500AAC35AD361201530B80E807
:0107E30022F3
:04085E008A248B2538
:100862001208E7AA26EAFF7E00D3940074809480DF
:0F087200400D1207B3AC24AD251208C91A80E659
:010881002254
:040643008B828A8399
:100647001208E7C3E58364809480400D7F2B12086E
:10065700DD85831985821A80107F2D1208DDC3E49A
:100667009582F51AE49583F519AA18EAFF7E00D357
:10067700940074809480400D1207B3AC19AD1A1220
:0506870008C91A80E61D
:01068C00224B
:0405F8008A298B2A97
:1005FC001208E7AA2BEAD39400748094804037EA5F
:10060C0024FFFDE434FFFC7F107E001207BDAC29F3
:10061C00AD2ACFCDCFCECCCE120165EF540FFEC399
:10062C00940A74809480EE5004243080022437FFA6
:06063C001208DD1A80BF68
:010642002295
:04070E008A2E8B2F75
:100712001208E7AA30EAFF7E00D394007480948026
:100722004026EF24FFFDEE34FFFC7F021207BDAC32
:100732002EAD2FCFCDCFCECCCE120165EF540124FA
:0807420030FF1208DD1A80CD22
:01074A00228C
:040920007F647E0072
:10092400EF1FAC0670011E4C600A7D027CEFDCFEFA
:04093400DDFC80EC7A
:01093800229C
:0404AF008F088D091C
:1004B300780A7C007D007BFF7A0979D57E007F0A6C
:1004C3001200DEE50814B4080050549004DC75F003
:1004D30003A4C58325F0C583730204F40204F80260
:1004E30004FC02050002050402050C0205140205C2
:1004F3001CD2A4800ED2A48012D2A48016D2A480CF
:100503001AC2A4D2A3D2A28016C2A4D2A3C2A2802A
:100513000EC2A4C2A3D2A28006C2A4C2A3C2A27462
:100523000A2509F8E6F5807F017E00120924E4F527
:010533008047
:0105340022A4
:1001BA00E4FB7590FFC29320970E7F64FE12092418
:1001CA003097FD1209207B0120960B1209203097E7
:1001DA00FD1209207B0520950B1209203097FD128C
:1001EA0009207B0920940B1209203097FD1209205F
:1001FA007B0D7590FFC29220970B1209203097FD54
:10020A001209207B0220960B1209203097FD120951
:10021A00207B0620950B1209203097FD1209207BBE
:10022A000A20940B1209203097FD1209207B0E75C3
:10023A0090FFC29120970B1209203097FD120920D6
:10024A007B0320960B1209203097FD1209207B07A9
:10025A0020950B1209203097FD1209207B0B209460
:10026A000B1209203097FD1209207B0F7590FFC2EF
:10027A009020970B1209203097FD1209207B042049
:10028A00960B1209203097FD1209207B0820950B46
:10029A001209203097FD1209207B0C20940B1209B9
:0B02AA00203097FD1209207B10AF03ED
:0102B5002226
:100939005389F0438901C28DD28C758CFC758A1854
:07094900D2A9D2AFC2B9220E
:1006CE00E4FB20B10E7F64FE12092430B1FD120945
:1006DE00207B0120B00B12092030B0FD1209207BC7
:1006EE000220B20B12092030B2FD1209207B03202A
:0F06FE00B30B12092030B3FD1209207B04AF03A8
:01070D0022C9
:1009050075985043878053890F438920D28E758D02
:0B091500F4758BF4C2ABD2AFD2AC2261
:080003008F993099FDC299228A
:0509EF00C2B6C2B522F2
:02074B00AD07F8
:10074D00E4FBEBC394087480948050237E00748086
:10075D00A803088006CEA2E713CE13D8F8FFEDF557
:10076D0082EF558224FF92B4D2B6C2B60B80D3D29B
:03077D00B5C2B54D
:010780002256
:10088200AE05AC07AF0612074BAF04A80774800889
:100892008002C313D8FCF4F5807F017E0012092484
:0408A2007580FF223C
:0509F400C2B6C2B522ED
:02053500A90714
:10053700D2B5E4FBEBC394087480948050227E000C
:100547007401A803088005C333CE33CED8F9FFE979
:10055700F582EF558224FF92B4D2B6C2B60B80D48F
:10056700E4FBEBC394087480948050227E007401EE
:10057700A803088005C333CE33CED8F9FFEDF58243
:10058700EF558224FF92B4D2B6C2B60B80D4C2B55F
:010597002241
:02059800AD07AD
:10059A00E4F9430501D2B5FBEBC394087480948057
:1005AA0050227E007401A803088005C333CE33CEDF
:1005BA00D8F9FFEDF582EF558224FF92B4C2B6D284
:1005CA00B60B80D4E4FBEBC3940874809480501774
:1005DA00D2B6C2B630B40DA8037401088002C33380
:0D05EA00D8FC42010B80DFC2B5C2B4AF01E6
:0105F70022E1
:1002B600E4FD7F8E120535E51B75F00A120104C4B4
:1002C60054F0FFE51B75F00A120104AEF0EF2EFDA7
:1002D6007F8C120535E51C75F00A120104C454F032
:1002E600FFE51C75F00A120104AEF0EF2EFD7F88C3
:1002F600120535E51D75F00A120104C454F0FFE538
:100306001D75F00A120104AEF0EF2EFD7F86120570
:1003160035E51E75F00A120104C454F0FFE51E759A
:10032600F00A120104AEF0EF2EFD7F84120535E5CA
:100336001F75F00A120104C454F0FFE51F75F00A98
:10034600120104AEF0EF2EFD7F82120535E5207511
:10035600F00A120104C454F0FFE52075F00A1201F8
:1003660004AEF0EF2EFD7F80120535E52175F00A0B
:10037600120104C454F0FFE52175F00A120104AE1F
:10038600F0EF2EFD7F8A1205357D807F8E020535C2
:100396007F8C120598EFC4540F75F00AA4FEEF5433
:1003A6000F2EF51B7F88120598EFC4540F75F00ABF
:1003B600A4FEEF540F2EF51C7F86120598EFC45449
:1003C6000F75F00AA4FEEF540F2EF51D7F8412055B
:1003D60098EFC4540F75F00AA4FEEF540F2EF51EC5
:1003E6007F82120598EFC4540F75F00AA4FEEF54ED
:1003F6000F2EF51F7F80120598EFC4540F75F00A73
:10040600A4FEEF540F2EF5207F8A120598EFC454F0
:0C0416000F75F00AA4FEEF540F2EF52124
:0104220022B7
:0909DF00D2A1D2A0C2A0C2A12243
:0709E800C2A0D2A1D2A0229F
:02078100AD07C2
:10078300E4FBEBC394087480948050237E00748050
:10079300A803088006CEA2E713CE13D8F8FFEDF521
:0F07A30082EF558224FF92A0D2A1C2A10B80D376
:0107B2002224
:10081000E4FFFED2A0EEC39408748094805017D2F7
:10082000A130A00DA8067480088002C313D8FC4232
:0608300007C2A10E80DFEB
:01083600229F
:0A09CB00EF24FF92A0D2A1C2A122E6
:0B09500012078112095BAF041207813F
:0B095B00D2A0D2A1A2A0E433FFC2A1F1
:01096600226E
:10096700AC05AA071209DF7FA012078112095BAF46
:07097700021209500209E819
:02083700AC070C
:10083900E4FE1209DF7FA01209501209DF7FA1121D
:10084900078112095B120810AE077F011209CB124A
:0408590009E8AF06F5
:01085D002278
:03000000020423D4
:0C042300787FE4F6D8FD75813B02046A86
:10000E00E709F608DFFA8046E709F208DFFA803ED4
:10001E0088828C83E709F0A3DFFA8032E309F608C1
:10002E00DFFA8078E309F208DFFA807088828C8329
:10003E00E309F0A3DFFA806489828A83E0A3F608DD
:10004E00DFFA805889828A83E0A3F208DFFA804CB7
:10005E0080D280FA80C680D4806980F2803380108E
:10006E0080A680EA809A80A880DA80E280CA8033F7
:10007E0089828A83ECFAE493A3C8C582C8CCC5836F
:10008E00CCF0A3C8C582C8CCC583CCDFE9DEE7803F
:10009E000D89828A83E493A3F608DFF9ECFAA9F0BE
:1000AE00EDFB2289828A83ECFAE0A3C8C582C8CC14
:1000BE00C583CCF0A3C8C582C8CCC583CCDFEADE2D
:1000CE00E880DB89828A83E493A3F208DFF980CC8F
:1000DE0088F0EF60010E4E60C388F0ED2402B40488
:1000EE000050B9F582EB2402B4040050AF2323452F
:0600FE00822390005E73F6
:10010400C2D530F707B2D563F0FF05F030E70CB283
:10011400D5F4048463F0FF05F080018430D502F443
:020124000422B3
:10012600BB010CE58229F582E5833AF583E022508E
:1001360006E92582F8E622BBFE06E92582F8E222D8
:0D014600E58229F582E5833AF583E49322F2
:10015300EF8DF0A4A8F0CF8CF0A428CE8DF0A42EC0
:02016300FE227A
:10016500BC000BBE0029EF8DF084FFADF022E4CC7E
:10017500F875F008EF2FFFEE33FEEC33FCEE9DEC47
:10018500984005FCEE9DFE0FD5F0E9E4CEFD22ED8D
:10019500F8F5F0EE8420D21CFEADF075F008EF2FD7
:1001A500FFED33FD4007985006D5F0F222C398FDC8
:0501B5000FD5F0EA2265
:10042F0002068DE493A3F8E493A34003F68001F250
:10043F0008DFF48029E493A3F85407240CC8C333CE
:10044F00C4540F4420C8834004F456800146F6DF9D
:10045F00E4800B010204081020408090097EE47EA6
:10046F00019360BCA3FF543F30E509541FFEE49392
:10047F00A360010ECF54C025E060A840B8E493A359
:10048F00FAE493A3F8E493A3C8C582C8CAC583CA84
:10049F00F0A3C8C582C8CAC583CADFE9DEE780BE3C
:010993000063
:00000001FF
