:100A3500414444522020434D4420204E554D003022
:0D0A450030202020203030202020303000D4
:090AF400013C00013E00013D003F
:10065A00120AE0120B9A7BFF7A0A79357D017F0133
:10066A001209D67BFF7A0A79447D017F021209D6E4
:10067A00120B26EF7006120B33EF60F4120BAA8FDF
:10068A003E120BAD8F3DE53EFB7A00752B027D01D4
:10069A007F02120795E53DFB7A00752B027D077FE5
:1006AA0002120795AF3D7E00EF64157002153CEF0C
:1006BA0064094E7002053CE53CFB7A00752B037D0C
:0806CA000C7F0212098E80A8CA
:0A0B69003F065B4F666D7D077F6F4E
:090AFD00070D170B130F29000669
:060B1700C2A58F80D2A7E9
:080B1D007F027EEFDEFEDFFC2B
:010B250022AD
:0A0B4B00C2A6120B17C2A7020B1D71
:1009F900CFCDCFCECCCE12015D7C007D0A12015D38
:040A0900ED2430FFA9
:0A0A0D00D2A6120B17C2A7020B1DA0
:100A1700AE07EEFB7A0064017004ED148009EB6405
:0E0A2700024A7009ED243F4480FF120B4B225F
:100AE0007F38120B4B7F0C120B4B7F06120B4B7F88
:040AF00001020B4BA9
:0A0B5500AC03120A17AF04020A0DE8
:0609D6008B278A28892905
:1009DC00120A17E4FDAB27AA28A9298D827583007A
:0C09EC0012011EFF6006120A0D0D80E9CA
:0109F80022DC
:0A090F00EF24FFFDEE34FFFC7F0A29
:080919008E2C8F2D8C2E8D2FEA
:100921007F017E00E4FBEBC3952FE52E6480F87414
:0E0931008098500AAC2CAD2D12014B0B80E8C3
:01093F002295
:04098E008A298B2AFD
:10099200120A17AA2BEAFF7E00D394007480948077
:0F09A200400D12090FAC29AD2A1209F91A80E68F
:0109B1002223
:0407E0008B828A83FB
:1007E400120A17C3E58364809480400D7F2B120A9C
:1007F4000D85833585823680107F2D120A0DC3E462
:100804009582F536E49583F535AA34EAFF7E00D364
:10081400940074809480400D12090FAC35AD3612EB
:0508240009F91A80E64D
:0108290022AC
:040795008A298B2AF8
:10079900120A17AA2BEAD39400748094804037EA8E
:1007A90024FFFDE434FFFC7F107E00120919AC29F7
:1007B900AD2ACFCDCFCECCCE12015DEF540FFEC303
:1007C900940A74809480EE5004243080022437FF08
:0607D900120A0D1A80BF98
:0107DF0022F7
:04086A008A398B3A02
:10086E00120A17AA3BEAFF7E00D39400748094808C
:10087E004026EF24FFFDEE34FFFC7F02120919AC77
:10088E0039AD3ACFCDCFCECCCE12015DEF5401248F
:08089E0030FF120A0D1A80CD93
:0108A600222F
:040A6D007F647E0024
:100A7100EF1FAC0670011E4C600A7D027CEFDCFEAC
:040A8100DDFC80EC2C
:010A8500224E
:0405D4008F1B8D1CD0
:1005D800781D7C007D007BFF7A0B79697E007F0A9D
:1005E8001200D6E51B14B40800505490060175F0AB
:1005F80003A4C58325F0C5837302061902061D02EC
:1006080006210206250206290206310206390206DB
:1006180041D2A4800ED2A48012D2A48016D2A48083
:100628001AC2A4D2A3D2A28016C2A4D2A3C2A28004
:100638000EC2A4C2A3D2A28006C2A4C2A3C2A2743C
:100648001D251CF8E6F5807F017E00120A71E4F58D
:010658008021
:01065900227E
:1002DF00E4FB7590FFC29320970E7F64FE120A71A4
:1002EF003097FD120A6D7B0120960B120A6D309725
:1002FF00FD120A6D7B0520950B120A6D3097FD12CA
:10030F000A6D7B0920940B120A6D3097FD120A6D4E
:10031F007B0D7590FFC29220970B120A6D3097FDDF
:10032F00120A6D7B0220960B120A6D3097FD120A8E
:10033F006D7B0620950B120A6D3097FD120A6D7BAF
:10034F000A20940B120A6D3097FD120A6D7B0E7501
:10035F0090FFC29120970B120A6D3097FD120A6D14
:10036F007B0320960B120A6D3097FD120A6D7B07E7
:10037F0020950B120A6D3097FD120A6D7B0B20949E
:10038F000B120A6D3097FD120A6D7B0F7590FFC22D
:10039F009020970B120A6D3097FD120A6D7B042087
:1003AF00960B120A6D3097FD120A6D7B0820950B84
:1003BF00120A6D3097FD120A6D7B0C20940B120AF6
:0B03CF006D3097FD120A6D7B10AF032C
:0103DA002200
:100A86005389F0438901C28DD28C758CFC758A1806
:070A9600D2A9D2AFC2B922C0
:10082A00E4FB20B10E7F64FE120A7130B1FD120A98
:10083A006D7B0120B00B120A6D30B0FD120A6D7B80
:10084A000220B20B120A6D30B2FD120A6D7B032030
:0F085A00B30B120A6D30B3FD120A6D7B04AF03AE
:01086900226C
:100A520075985043878053890F438920D28E758DB4
:0B0A6200F4758BF4C2ABD2AFD2AC2213
:080B85008F993099FDC29922FD
:050BA000C2B6C2B5223F
:0208A700AD079B
:1008A900E4FBEBC394087480948050237E00748029
:1008B900A803088006CEA2E713CE13D8F8FFEDF5FA
:1008C90082EF558224FF92B4D2B6C2B60B80D3D23E
:0308D900B5C2B5F0
:0108DC0022F9
:1009B200AE05AC07AF061208A7AF04A807748008FB
:1009C2008002C313D8FCF4F5807F017E00120A7105
:0409D2007580FF220B
:050BA500C2B6C2B5223A
:0206D200A90776
:1006D400D2B5E4FBEBC394087480948050227E006E
:1006E4007401A803088005C333CE33CED8F9FFE9DB
:1006F400F582EF558224FF92B4D2B6C2B60B80D4F1
:10070400E4FBEBC394087480948050227E0074014F
:10071400A803088005C333CE33CED8F9FFEDF582A4
:10072400EF558224FF92B4D2B6C2B60B80D4C2B5C0
:0107340022A2
:02073500AD070E
:10073700E4F9430501D2B5FBEBC3940874809480B8
:1007470050227E007401A803088005C333CE33CE40
:10075700D8F9FFEDF582EF558224FF92B4C2B6D2E5
:10076700B60B80D4E4FBEBC39408748094805017D5
:10077700D2B6C2B630B40DA8037401088002C333E1
:0D078700D8FC42010B80DFC2B5C2B4AF0147
:010794002242
:1003DB00E4FD7F8E1206D2E50D75F00A1200FCC407
:1003EB0054F0FFE50D75F00A1200FCAEF0EF2EFD98
:1003FB007F8C1206D2E50E75F00A1200FCC454F085
:10040B00FFE50E75F00A1200FCAEF0EF2EFD7F88B3
:10041B001206D2E50F75F00A1200FCC454F0FFE58A
:10042B000F75F00A1200FCAEF0EF2EFD7F86120660
:10043B00D2E51075F00A1200FCC454F0FFE51075FC
:10044B00F00A1200FCAEF0EF2EFD7F841206D2E50F
:10045B001175F00A1200FCC454F0FFE51175F00A97
:10046B001200FCAEF0EF2EFD7F821206D2E5127564
:10047B00F00A1200FCC454F0FFE51275F00A1200EA
:10048B00FCAEF0EF2EFD7F801206D2E51375F00A5D
:10049B001200FCC454F0FFE51375F00A1200FCAE19
:1004AB00F0EF2EFD7F8A1206D27D807F8E0206D260
:1004BB007F8C120735EFC4540F75F00AA4FEEF546E
:1004CB000F2EF50D7F88120735EFC4540F75F00A08
:1004DB00A4FEEF540F2EF50E7F86120735EFC45492
:1004EB000F75F00AA4FEEF540F2EF50F7F84120741
:1004FB0035EFC4540F75F00AA4FEEF540F2EF51010
:10050B007F82120735EFC4540F75F00AA4FEEF5427
:10051B000F2EF5117F80120735EFC4540F75F00ABB
:10052B00A4FEEF540F2EF5127F8A120735EFC45439
:0C053B000F75F00AA4FEEF540F2EF5130C
:010547002291
:090B7300D2A1D2A0C2A0C2A122AD
:070B8D00C2A0D2A1D2A022F8
:0208DD00AD0765
:1008DF00E4FBEBC394087480948050237E007480F3
:1008EF00A803088006CEA2E713CE13D8F8FFEDF5C4
:0F08FF0082EF558224FF92A0D2A1C2A10B80D319
:01090E0022C6
:10094000E4FFFED2A0EEC39408748094805017D2C6
:10095000A130A00DA8067480088002C313D8FC4201
:0609600007C2A10E80DFBA
:01096600226E
:0A0B5F00EF24FF92A0D2A1C2A12250
:0B0A9D001208DD120AA8AF041208DDE9
:0B0AA800D2A0D2A1A2A0E433FFC2A1A3
:010AB3002220
:100AB400AC05AA07120B737FA01208DD120AA8AFB7
:070AC40002120A9D020B8DD6
:02096700AC07DB
:10096900E4FE120B737FA0120A9D120B737FA11272
:1009790008DD120AA8120940AE077F01120B5F12A7
:040989000B8DAF061D
:01098D002247
:0B0B4000D288C289D2A8D2AFD2B8225E
:100B07005389F0438901C28DC28CE4F58CF58A22A2
:0A0ACB00120B7C8E098F0AE4FFFE77
:0B0AD500AD07AC068C8CAF058F8A22A9
:090B7C00AF8CEFFEAD8AEDFF2203
:060B9400EF24FF928C2209
:060B9A00120B07020B40E4
:0D0B2600E5166006E4F5167F01227F00222F
:0D0B3300E5146006E4F5147F01227F002226
:030BAA00AF0C226B
:030BAD00AF0B2269
:030003000201B245
:1001B200C0E0C0D075D000C000C002C003C004C0FF
:1001C20005C006C007E508FB7A00700CFFFE120AA4
:1001D200D57F01120B94803FEB64014A703F120AF3
:1001E200CBD3E50A94A6E509942E4010E50A948E35
:1001F200E509943250067508020202CCD3E50A944E
:100202008CE50994264010E50A9474E509942A5075
:10021200067514010202C47508010202CCE50864E5
:100222000260030202CC120ACBD3E50A9414E50958
:100232009402402BE50A94FCE50994055021E5154A
:10024200131313541F2417F8C000E6FFE5155407D3
:10025200FEF87401088002C333D8FCF45F8033D304
:10026200E50A9426E5099406402FE50A940EE5096D
:10027200940A5025E515131313541F2417F8C000D0
:10028200E6FFE5155407FEF87401088002C333D86F
:10029200FC4FD000F605158006751500750801C3E0
:1002A200E5159420748094804020751500E518F4BB
:1002B200B5170FE51AF4B5190985170C85190B75D1
:1002C2001601E4FF120B94750800D007D006D00582
:0D02D200D004D003D002D000D0D0D0E03254
:03000000020548AE
:0C054800787FE4F6D8FD75813E02058F37
:10000600E709F608DFFA8046E709F208DFFA803EDC
:1000160088828C83E709F0A3DFFA8032E309F608C9
:10002600DFFA8078E309F208DFFA807088828C8331
:10003600E309F0A3DFFA806489828A83E0A3F608E5
:10004600DFFA805889828A83E0A3F208DFFA804CBF
:1000560080D280FA80C680D4806980F28033801096
:1000660080A680EA809A80A880DA80E280CA8033FF
:1000760089828A83ECFAE493A3C8C582C8CCC58377
:10008600CCF0A3C8C582C8CCC583CCDFE9DEE78047
:100096000D89828A83E493A3F608DFF9ECFAA9F0C6
:1000A600EDFB2289828A83ECFAE0A3C8C582C8CC1C
:1000B600C583CCF0A3C8C582C8CCC583CCDFEADE35
:1000C600E880DB89828A83E493A3F208DFF980CC97
:1000D60088F0EF60010E4E60C388F0ED2402B40490
:1000E6000050B9F582EB2402B4040050AF23234537
:0600F60082239000567306
:1000FC00C2D530F707B2D563F0FF05F030E70CB28C
:10010C00D5F4048463F0FF05F080018430D502F44B
:02011C000422BB
:10011E00BB010CE58229F582E5833AF583E0225096
:10012E0006E92582F8E622BBFE06E92582F8E222E0
:0D013E00E58229F582E5833AF583E49322FA
:10014B00EF8DF0A4A8F0CF8CF0A428CE8DF0A42EC8
:02015B00FE2282
:10015D00BC000BBE0029EF8DF084FFADF022E4CC86
:10016D00F875F008EF2FFFEE33FEEC33FCEE9DEC4F
:10017D00984005FCEE9DFE0FD5F0E9E4CEFD22ED95
:10018D00F8F5F0EE8420D21CFEADF075F008EF2FDF
:10019D00FFED33FD4007985006D5F0F222C398FDD0
:0501AD000FD5F0EA226D
:1005540002065AE493A3F8E493A34003F68001F25D
:1005640008DFF48029E493A3F85407240CC8C333A8
:10057400C4540F4420C8834004F456800146F6DF77
:10058400E4800B0102040810204080900AF4E47E09
:10059400019360BCA3FF543F30E509541FFEE4936C
:1005A400A360010ECF54C025E060A840B8E493A333
:1005B400FAE493A3F8E493A3C8C582C8CAC583CA5E
:1005C400F0A3C8C582C8CAC583CADFE9DEE780BE16
:010B060000EE
:00000001FF
