:0B09750041444A204E544320524700EA
:040967000235000055
:1005AA001209447BFF7A0979757D017F0112089A45
:1005BA007F9C12052A8E358F36751803AB36AA35FD
:1005CA007D017F021208527F0A7E001209187FDC21
:1005DA0012052A8E358F36751803AB36AA357D0576
:1005EA007F021208527F0A7E001209187FAC120598
:1005FA002A8E358F36751803AB36AA357D097F02E8
:0C060A001208527F0A7E0012091880A41A
:0A0994003F065B4F666D7D077F6F25
:09096B000724170B130F290006E5
:06095800C2A58F80D2A7AA
:08095E007F027EEFDEFEDFFCEC
:01096600226E
:0A098000C2A6120958C2A702095EC0
:1008BD00CFCDCFCECCCE12015A7C007D0A12015A7B
:0408CD00ED2430FFE7
:0A08D100D2A6120958C2A702095E60
:1008DB00AE07EEFB7A0064017004ED148009EB6443
:0E08EB00024A7009ED243F4480FF120980226A
:100944007F381209807F0C1209807F061209807F8C
:040954000102098013
:0A098A00AC031208DBAF040208D131
:06089A008B148A1589167B
:1008A0001208DBE4FDAB14AA15A9168D827583002E
:0C08B00012011BFF60061208D10D80E948
:0108BC002219
:0A082100EF24FFFDEE34FFFC7F0A18
:08082B008E198F1A8C1B8D1C25
:100833007F017E00E4FBEBC3951CE51B6480F87429
:0E0843008098500AAC19AD1A1201480B80E8DB
:010851002284
:040852008A168B1760
:100856001208DBAA18EAFF7E00D394007480948005
:0F086600400D120821AC16AD171208BD1A80E61E
:010875002260
:040724008B828A83B7
:100728001208DBC3E58364809480400D7F2B120898
:10073800D185832285822380107F2D1208D1C3E4BE
:100748009582F523E49583F522AA21EAFF7E00D35A
:10075800940074809480400D120821AC22AD2312BD
:0507680008BD1A80E647
:01076D002269
:0406D9008A2D8B2EAD
:1006DD001208DBAA2FEAD39400748094804037EA85
:1006ED0024FFFDE434FFFC7F107E0012082BAC2D9F
:1006FD00AD2ECFCDCFCECCCE12015AEF540FFEC3BF
:10070D00940A74809480EE5004243080022437FFC4
:06071D001208D11A80BF92
:0107230022B3
:0407AE008A328B33CD
:1007B2001208DBAA34EAFF7E00D39400748094808E
:1007C2004026EF24FFFDEE34FFFC7F0212082BAC23
:1007D20032AD33CFCDCFCECCCE12015AEF5401245D
:0807E20030FF1208D11A80CD8E
:0107EA0022EC
:040914007F647E007E
:10091800EF1FAC0670011E4C600A7D027CEFDCFE06
:04092800DDFC80EC86
:01092C0022A8
:0404A4008F088D0927
:1004A800780A7C007D007BFF7A0979947E007F0AB8
:1004B8001200D3E50814B4080050549004D175F024
:1004C80003A4C58325F0C583730204E90204ED0281
:1004D80004F10204F50204F9020501020509020506
:1004E80011D2A4800ED2A48012D2A48016D2A480E5
:1004F8001AC2A4D2A3D2A28016C2A4D2A3C2A28036
:100508000EC2A4C2A3D2A28006C2A4C2A3C2A2746D
:100518000A2509F8E6F5807F017E00120918E4F53E
:010528008052
:0105290022AF
:1001AF00E4FB7590FFC29320970E7F64FE1209182F
:1001BF003097FD1209147B0120960B12091430970A
:1001CF00FD1209147B0520950B1209143097FD12AF
:1001DF0009147B0920940B1209143097FD1209148E
:1001EF007B0D7590FFC29220970B1209143097FD6B
:1001FF001209147B0220960B1209143097FD120975
:10020F00147B0620950B1209143097FD1209147BED
:10021F000A20940B1209143097FD1209147B0E75E6
:10022F0090FFC29120970B1209143097FD120914F9
:10023F007B0320960B1209143097FD1209147B07CC
:10024F0020950B1209143097FD1209147B0B209483
:10025F000B1209143097FD1209147B0F7590FFC212
:10026F009020970B1209143097FD1209147B04206C
:10027F00960B1209143097FD1209147B0820950B69
:10028F001209143097FD1209147B0C20940B1209DC
:0B029F00143097FD1209147B10AF0310
:0102AA002231
:10092D005389F0438901C28DD28C758CFC758A1860
:07093D00D2A9D2AFC2B9221A
:10076E00E4FB20B10E7F64FE12091830B1FD1209B0
:10077E00147B0120B00B12091430B0FD1209147B4A
:10078E000220B20B12091430B2FD1209147B0320A1
:0F079E00B30B12091430B3FD1209147B04AF031F
:0107AD002229
:1008F90075985043878053890F438920D28E758D0F
:0B090900F4758BF4C2ABD2AFD2AC226D
:08099E008F993099FDC29922E6
:0509A600C2B6C2B5223B
:0207EB00AD0758
:1007ED00E4FBEBC394087480948050237E007480E6
:1007FD00A803088006CEA2E713CE13D8F8FFEDF5B7
:10080D0082EF558224FF92B4D2B6C2B60B80D3D2FA
:03081D00B5C2B5AC
:0108200022B5
:10087600AE05AC07AF061207EBAF04A807748008F5
:100886008002C313D8FCF4F5807F017E001209189C
:040896007580FF2248
:0509AB00C2B6C2B52236
:02061600A90732
:10061800D2B5E4FBEBC394087480948050227E002A
:100628007401A803088005C333CE33CED8F9FFE997
:10063800F582EF558224FF92B4D2B6C2B60B80D4AD
:10064800E4FBEBC394087480948050227E0074010C
:10065800A803088005C333CE33CED8F9FFEDF58261
:10066800EF558224FF92B4D2B6C2B60B80D4C2B57D
:01067800225F
:02067900AD07CB
:10067B00E4F9430501D2B5FBEBC394087480948075
:10068B0050227E007401A803088005C333CE33CEFD
:10069B00D8F9FFEDF582EF558224FF92B4C2B6D2A2
:1006AB00B60B80D4E4FBEBC3940874809480501792
:1006BB00D2B6C2B630B40DA8037401088002C3339E
:0D06CB00D8FC42010B80DFC2B5C2B4AF0104
:0106D80022FF
:1002AB00E4FD7F8E120616E52475F00A1200F9C4E0
:1002BB0054F0FFE52475F00A1200F9AEF0EF2EFDB5
:1002CB007F8C120616E52575F00A1200F9C454F05E
:1002DB00FFE52575F00A1200F9AEF0EF2EFD7F88D1
:1002EB00120616E52675F00A1200F9C454F0FFE564
:1002FB002675F00A1200F9AEF0EF2EFD7F8612067E
:10030B0016E52775F00A1200F9C454F0FFE52775BE
:10031B00F00A1200F9AEF0EF2EFD7F84120616E5FF
:10032B002875F00A1200F9C454F0FFE52875F00A9D
:10033B001200F9AEF0EF2EFD7F82120616E529753D
:10034B00F00A1200F9C454F0FFE52975F00A120007
:10035B00F9AEF0EF2EFD7F80120616E52A75F00A36
:10036B001200F9C454F0FFE52A75F00A1200F9AE39
:10037B00F0EF2EFD7F8A1206167D807F8E02061609
:10038B007F8C120679EFC4540F75F00AA4FEEF545C
:10039B000F2EF5247F88120679EFC4540F75F00ADF
:1003AB00A4FEEF540F2EF5257F86120679EFC45469
:1003BB000F75F00AA4FEEF540F2EF5267F8412065C
:1003CB0079EFC4540F75F00AA4FEEF540F2EF527E6
:1003DB007F82120679EFC4540F75F00AA4FEEF5416
:1003EB000F2EF5287F80120679EFC4540F75F00A93
:1003FB00A4FEEF540F2EF5297F8A120679EFC45411
:0C040B000F75F00AA4FEEF540F2EF52A26
:0104170022C2
:02052A00AD071B
:10052C00E4FBF514F515C2B5C2B6EBC394087480A0
:10053C00948050237E007480A803088006CEA2E726
:10054C0013CE13D8F8FFEDF582EF558224FF92B449
:10055C00D2B6C2B60B80D3E4FBEBC3941074809478
:10056C0080501ED2B6C2B630B7147E80E4A8030801
:10057C008005CEC313CE13D8F94215EE42140B806E
:10058C00D8D2B5ED30E306E514FF7E0022E514C4A5
:0D059C00F854F0C868FEE515C4540F48FF80
:0105A900222F
:03000000020418DF
:0C041800787FE4F6D8FD75813602045FA1
:10000300E709F608DFFA8046E709F208DFFA803EDF
:1000130088828C83E709F0A3DFFA8032E309F608CC
:10002300DFFA8078E309F208DFFA807088828C8334
:10003300E309F0A3DFFA806489828A83E0A3F608E8
:10004300DFFA805889828A83E0A3F208DFFA804CC2
:1000530080D280FA80C680D4806980F28033801099
:1000630080A680EA809A80A880DA80E280CA803302
:1000730089828A83ECFAE493A3C8C582C8CCC5837A
:10008300CCF0A3C8C582C8CCC583CCDFE9DEE7804A
:100093000D89828A83E493A3F608DFF9ECFAA9F0C9
:1000A300EDFB2289828A83ECFAE0A3C8C582C8CC1F
:1000B300C583CCF0A3C8C582C8CCC583CCDFEADE38
:1000C300E880DB89828A83E493A3F208DFF980CC9A
:1000D30088F0EF60010E4E60C388F0ED2402B40493
:1000E3000050B9F582EB2402B4040050AF2323453A
:0600F3008223900053730C
:1000F900C2D530F707B2D563F0FF05F030E70CB28F
:10010900D5F4048463F0FF05F080018430D502F44E
:020119000422BE
:10011B00BB010CE58229F582E5833AF583E0225099
:10012B0006E92582F8E622BBFE06E92582F8E222E3
:0D013B00E58229F582E5833AF583E49322FD
:10014800EF8DF0A4A8F0CF8CF0A428CE8DF0A42ECB
:02015800FE2285
:10015A00BC000BBE0029EF8DF084FFADF022E4CC89
:10016A00F875F008EF2FFFEE33FEEC33FCEE9DEC52
:10017A00984005FCEE9DFE0FD5F0E9E4CEFD22ED98
:10018A00F8F5F0EE8420D21CFEADF075F008EF2FE2
:10019A00FFED33FD4007985006D5F0F222C398FDD3
:0501AA000FD5F0EA2270
:100424000205AAE493A3F8E493A34003F68001F23F
:1004340008DFF48029E493A3F85407240CC8C333D9
:10044400C4540F4420C8834004F456800146F6DFA8
:10045400E4800B0102040810204080900967E47EC8
:10046400019360BCA3FF543F30E509541FFEE4939D
:10047400A360010ECF54C025E060A840B8E493A364
:10048400FAE493A3F8E493A3C8C582C8CAC583CA8F
:10049400F0A3C8C582C8CAC583CADFE9DEE780BE47
:010974000082
:00000001FF
