:0E066100436C6F636B3A0020203A20203A0071
:09066F0001263701283B01271781
:1003F90012063E1206277BFF7A0679617D017F018D
:100409001205AF7BFF7A0679687D017F021205AF7D
:10041900E527FB7A007518027D017F0212058BE53D
:1004290028FB7A007518027D047F0212058BE526E8
:0F043900FB7A007518027D077F0212058B80D1B8
:03000B000203A647
:0403A600C0E0C0D023
:1003AA00758CFC758A180525E52570020524C39409
:1003BA00E8E524940340337524007525000526E5F5
:1003CA0026943C7480948040217526000528E528EF
:1003DA00943C7480948040127528000527E5279480
:0A03EA00187480948040037527000A
:0503F400D0D0D0E03282
:0A068D003F065B4F666D7D077F6F2F
:06065200C2A58F80D2A7B3
:080658007F027EEFDEFEDFFCF5
:010660002277
:0A067900C2A6120652C2A7020658DC
:1005D200CFCDCFCECCCE1201437C007D0A12014397
:0405E200ED2430FFD5
:0A05E600D2A6120652C2A702065860
:1005F000AE07EEFB7A0064017004ED148009EB6431
:0E060000024A7009ED243F4480FF1206792261
:10063E007F381206797F0C1206797F061206797FB3
:04064E000102067926
:0A068300AC031205F0AF040205E617
:0605AF008B148A15891669
:1005B5001205F0E4FDAB14AA15A9168D827583000A
:0C05C500120104FF60061205E60D80E93B
:0105D1002207
:0A055A00EF24FFFDEE34FFFC7F0AE2
:080564008E198F1A8C1B8D1CEF
:10056C007F017E00E4FBEBC3951CE51B6480F874F3
:0E057C008098500AAC19AD1A1201310B80E8BC
:01058A00224E
:04058B008A168B172A
:10058F001205F0AA18EAFF7E00D3940074809480BD
:0F059F00400D12055AAC16AD171205D21A80E6A0
:0105AE00222A
:040493008B828A834B
:100497001205F0C3E58364809480400D7F2B12051D
:1004A700E685832285822380107F2D1205E6C3E42B
:1004B7009582F523E49583F522AA21EAFF7E00D3EE
:1004C700940074809480400D12055AAC22AD23121B
:0504D70005D21A80E6C9
:0104DC0022FD
:040448008A2B8B2C44
:10044C001205F0AA2DEAD39400748094804037EA08
:10045C0024FFFDE434FFFC7F107E00120564AC2BFE
:10046C00AD2CCFCDCFCECCCE120143EF540FFEC36B
:10047C00940A74809480EE5004243080022437FF58
:06048C001205E61A80BF14
:010492002247
:04051D008A308B3164
:100521001205F0AA32EAFF7E00D394007480948011
:100531004026EF24FFFDEE34FFFC7F02120564AC80
:1005410030AD31CFCDCFCECCCE120143EF5401240B
:0805510030FF1205E61A80CD0F
:01055900227F
:04060E007F647E0087
:10061200EF1FAC0670011E4C600A7D027CEFDCFE0F
:04062200DDFC80EC8F
:0106260022B1
:040320008F088D09AC
:10032400780A7C007D007BFF7A06798D7E007F0A47
:100334001200DEE50814B40800505490034D75F023
:1003440003A4C58325F0C583730203650203690210
:10035400036D02037102037502037D020385020328
:100364008DD2A4800ED2A48012D2A48016D2A480EE
:100374001AC2A4D2A3D2A28016C2A4D2A3C2A280BB
:100384000EC2A4C2A3D2A28006C2A4C2A3C2A274F3
:100394000A2509F8E6F5807F017E00120612E4F5CD
:0103A40080D8
:0103A5002235
:10019800E4FB7590FFC29320970E7F64FE1206124F
:1001A8003097FD12060E7B0120960B12060E309733
:1001B800FD12060E7B0520950B12060E3097FD12D8
:1001C800060E7B0920940B12060E3097FD12060EC0
:1001D8007B0D7590FFC29220970B12060E3097FD8B
:1001E80012060E7B0220960B12060E3097FD1206A1
:1001F8000E7B0620950B12060E3097FD12060E7B1D
:100208000A20940B12060E3097FD12060E7B0E750F
:1002180090FFC29120970B12060E3097FD12060E22
:100228007B0320960B12060E3097FD12060E7B07F5
:1002380020950B12060E3097FD12060E7B0B2094AC
:100248000B12060E3097FD12060E7B0F7590FFC23B
:100258009020970B12060E3097FD12060E7B042095
:10026800960B12060E3097FD12060E7B0820950B92
:1002780012060E3097FD12060E7B0C20940B120608
:0B0288000E3097FD12060E7B10AF0336
:010293002248
:100627005389F0438901C28DD28C758CFC758A1869
:07063700D2A9D2AFC2B92223
:1004DD00E4FB20B10E7F64FE12061230B1FD120650
:1004ED000E7B0120B00B12060E30B0FD12060E7BF6
:1004FD000220B20B12060E30B2FD12060E7B032047
:0F050D00B30B12060E30B3FD12060E7B04AF03C4
:01051C0022BC
:0300000002029465
:0C029400787FE4F6D8FD7581320202DBB1
:10000E00E709F608DFFA8046E709F208DFFA803ED4
:10001E0088828C83E709F0A3DFFA8032E309F608C1
:10002E00DFFA8078E309F208DFFA807088828C8329
:10003E00E309F0A3DFFA806489828A83E0A3F608DD
:10004E00DFFA805889828A83E0A3F208DFFA804CB7
:10005E0080D280FA80C680D4806980F2803380108E
:10006E0080A680EA809A80A880DA80E280CA8033F7
:10007E0089828A83ECFAE493A3C8C582C8CCC5836F
:10008E00CCF0A3C8C582C8CCC583CCDFE9DEE7803F
:10009E000D89828A83E493A3F608DFF9ECFAA9F0BE
:1000AE00EDFB2289828A83ECFAE0A3C8C582C8CC14
:1000BE00C583CCF0A3C8C582C8CCC583CCDFEADE2D
:1000CE00E880DB89828A83E493A3F208DFF980CC8F
:1000DE0088F0EF60010E4E60C388F0ED2402B40488
:1000EE000050B9F582EB2402B4040050AF2323452F
:0600FE00822390005E73F6
:10010400BB010CE58229F582E5833AF583E02250B0
:1001140006E92582F8E622BBFE06E92582F8E222FA
:0D012400E58229F582E5833AF583E4932214
:10013100EF8DF0A4A8F0CF8CF0A428CE8DF0A42EE2
:02014100FE229C
:10014300BC000BBE0029EF8DF084FFADF022E4CCA0
:10015300F875F008EF2FFFEE33FEEC33FCEE9DEC69
:10016300984005FCEE9DFE0FD5F0E9E4CEFD22EDAF
:10017300F8F5F0EE8420D21CFEADF075F008EF2FF9
:10018300FFED33FD4007985006D5F0F222C398FDEA
:050193000FD5F0EA2287
:1002A0000203F9E493A3F8E493A34003F68001F278
:1002B00008DFF48029E493A3F85407240CC8C3335F
:1002C000C4540F4420C8834004F456800146F6DF2E
:1002D000E4800B010204081020408090066FE47E49
:1002E000019360BCA3FF543F30E509541FFEE49323
:1002F000A360010ECF54C025E060A840B8E493A3EA
:10030000FAE493A3F8E493A3C8C582C8CAC583CA14
:10031000F0A3C8C582C8CAC583CADFE9DEE780BECC
:010678000081
:00000001FF
