:10053000120505AF3112057C05317FE87E031204F8
:03054000D980F06F
:0A0572003F065B4F666D7D077F6F4B
:06054300C2A58F80D2A7C3
:080549007F027EEFDEFEDFFC05
:010551002287
:0A055E00C2A6120543C2A702054918
:10049900CFCDCFCECCCE1201387C007D0A120138E7
:0404A900ED2430FF0F
:0A04AD00D2A6120543C2A7020549BA
:1004B700AE07EEFB7A0064017004ED148009EB646B
:0E04C700024A7009ED243F4480FF12055E22B8
:10051C007F3812055E7F0C12055E7F0612055E7F2A
:04052C000102055E65
:0A056800AC031204B7AF040204ADA7
:060476008B2E8A2F893055
:10047C001204B7E4FDAB2EAA2FA9308D8275830030
:0C048C001200F9FF60061204AD0D80E9BB
:010498002241
:0A042100EF24FFFDEE34FFFC7F0A1C
:08042B008E2A8F2B8C2C8D2DE5
:100433007F017E00E4FBEBC3952DE52C6480F8740B
:0E0443008098500AAC2AAD2B1201260B80E8DF
:010451002288
:040452008A1D8B1E56
:100456001204B7AA1FEAFF7E00D39400748094802A
:0F046600400D120421AC1DAD1E1204991A80E640
:010475002264
:04035A008B828A8385
:10035E001204B7C3E58364809480400D7F2B120492
:10036E00AD85831985821A80107F2D1204ADC3E4EA
:10037E009582F51AE49583F519AA18EAFF7E00D343
:10038E00940074809480400D120421AC19AD1A12A1
:05039E0004991A80E63D
:0103A3002237
:04030F008A228B2390
:100313001204B7AA24EAD39400748094804037EA85
:1003230024FFFDE434FFFC7F107E0012042BAC227B
:10033300AD23CFCDCFCECCCE120138EF540FFEC3B9
:10034300940A74809480EE5004243080022437FF92
:060353001204AD1A80BF88
:010359002281
:0403E4008A278B28B1
:1003E8001204B7AA29EAFF7E00D39400748094808F
:1003F8004026EF24FFFDEE34FFFC7F0212042BACF5
:1004080027AD28CFCDCFCECCCE120138EF54012462
:0804180030FF1204AD1A80CD83
:0104200022B9
:0404D5007F647E00C2
:1004D900EF1FAC0670011E4C600A7D027CEFDCFE4A
:0404E900DDFC80ECCA
:0104ED0022EC
:040289008F088D0944
:10028D00780A7C007D007BFF7A0579727E007F0AFB
:10029D001200D3E50814B4080050549002B675F05E
:1002AD0003A4C58325F0C583730202CE0202D202D8
:1002BD0002D60202DA0202DE0202E60202EE0202B9
:1002CD00F6D2A4800ED2A48012D2A48016D2A4801D
:1002DD001AC2A4D2A3D2A28016C2A4D2A3C2A28053
:1002ED000EC2A4C2A3D2A28006C2A4C2A3C2A2748B
:1002FD000A2509F8E6F5807F017E001204D9E4F5A0
:01030D00806F
:01030E0022CC
:10018D00E4FB7590FFC29320970E7F64FE1204D995
:10019D003097FD1204D57B0120960B1204D53097B4
:1001AD00FD1204D57B0520950B1204D53097FD1259
:1001BD0004D57B0920940B1204D53097FD1204D57C
:1001CD007B0D7590FFC29220970B1204D53097FDD1
:1001DD001204D57B0220960B1204D53097FD120424
:1001ED00D57B0620950B1204D53097FD1204D57BD7
:1001FD000A20940B1204D53097FD1204D57B0E7591
:10020D0090FFC29120970B1204D53097FD1204D5A3
:10021D007B0320960B1204D53097FD1204D57B0776
:10022D0020950B1204D53097FD1204D57B0B20942D
:10023D000B1204D53097FD1204D57B0F7590FFC2BC
:10024D009020970B1204D53097FD1204D57B042016
:10025D00960B1204D53097FD1204D57B0820950B13
:10026D001204D53097FD1204D57B0C20940B12048B
:0B027D00D53097FD1204D57B10AF03B5
:010288002253
:1004EE005389F0438901C28DD28C758CFC758A18A4
:0704FE00D2A9D2AFC2B9225E
:1003A400E4FB20B10E7F64FE1204D930B1FD1204C7
:1003B400D57B0120B00B1204D530B0FD1204D57BDF
:1003C4000220B20B1204D530B2FD1204D57B0320F7
:0F03D400B30B1204D530B3FD1204D57B04AF0375
:0103E30022F7
:1005050075985043878053890F438920D28E758D06
:07051500F4758BF4C2AB2268
:08057C008F993099FDC299220C
:03000000020552A4
:0C055200787FE4F6D8FD75813102053099
:10000300E709F608DFFA8046E709F208DFFA803EDF
:1000130088828C83E709F0A3DFFA8032E309F608CC
:10002300DFFA8078E309F208DFFA807088828C8334
:10003300E309F0A3DFFA806489828A83E0A3F608E8
:10004300DFFA805889828A83E0A3F208DFFA804CC2
:1000530080D280FA80C680D4806980F28033801099
:1000630080A680EA809A80A880DA80E280CA803302
:1000730089828A83ECFAE493A3C8C582C8CCC5837A
:10008300CCF0A3C8C582C8CCC583CCDFE9DEE7804A
:100093000D89828A83E493A3F608DFF9ECFAA9F0C9
:1000A300EDFB2289828A83ECFAE0A3C8C582C8CC1F
:1000B300C583CCF0A3C8C582C8CCC583CCDFEADE38
:1000C300E880DB89828A83E493A3F208DFF980CC9A
:1000D30088F0EF60010E4E60C388F0ED2402B40493
:1000E3000050B9F582EB2402B4040050AF2323453A
:0600F3008223900053730C
:1000F900BB010CE58229F582E5833AF583E02250BC
:1001090006E92582F8E622BBFE06E92582F8E22205
:0D011900E58229F582E5833AF583E493221F
:10012600EF8DF0A4A8F0CF8CF0A428CE8DF0A42EED
:02013600FE22A7
:10013800BC000BBE0029EF8DF084FFADF022E4CCAB
:10014800F875F008EF2FFFEE33FEEC33FCEE9DEC74
:10015800984005FCEE9DFE0FD5F0E9E4CEFD22EDBA
:10016800F8F5F0EE8420D21CFEADF075F008EF2F04
:10017800FFED33FD4007985006D5F0F222C398FDF5
:050188000FD5F0EA2292
:00000001FF
